:100000000C949F050C94EC220C9419230C94462319
:100010000C9473230C94C7050C94C7050C94A0236F
:100020000C94C7050C94C7050C94B72C0C94832B27
:100030000C949F070C94C7050C94C7050C94C70536
:100040000C94C7050C94C1210C94C7050C94C705EA
:100050000C94C7050C94C7050C94C7050C94CD23CC
:100060000C94C7050C94C7050C94C7050C94C705E0
:100070000C94C7050C94C7050C94C7050C94C705D0
:100080000C94C7050C94C7050C94C7050C94C705C0
:100090000C94C7050C94C7050C94C7050C94C705B0
:1000A0000C94C7050C94C7050C94C705E624E924F5
:1000B000D824DC24E2240A250A250A25ED24F1248B
:1000C000F524FB24FF240A25052509090909092D22
:1000D0003D5B53797374656D20496E666F5D3D2D90
:1000E0000D0A09536F66747761726520496E7374E7
:1000F000616C6C656409094861726477617265209E
:100100004D6F64657309094261635B4B5D0D0A09BC
:10011000415652204F5309095352414D090943504A
:10012000553A20204D656761333275340D0A095008
:100130006978656C4472697665095352414D0909C5
:10014000436C6F636B3A2031364D687A0D0A094D66
:10015000657367426C6F636B095352414D0D0A0919
:10016000495220536861726B095352414D0D0A097F
:10017000454550524F4D616E6970095352414D0DC6
:100180000A005F5F5F5F5F5F5F5F5F20202020206E
:1001900020202020205F5F5F5F5F5F5F205F5F5FE9
:1001A0005F5F5F5F5F5F205F5F5F5F5F5F5F20201C
:1001B0005F5F5F5F5F5F5F20205F20202020202047
:1001C000202020205F5F5F5F5F5F5F202020202076
:1001D000202020202020205F5F5F5F5F5F200A0DCE
:1001E0005C5F5F2020205F5F2F7C205C2020202030
:1001F000202F7C28205F5F5F2020205C5F5F202015
:10020000205F5F2F2820205F5F5F5F205C28202019
:100210005F5F5F202029282028202020202F7C209D
:10022000202820205F5F202020297C5C20202020A7
:10023000202F7C202F205F5F5F5F205C0A0D202035
:10024000202920282020207C202920202028207CD4
:100250007C202820202029207C20202029202820C4
:1002600020207C2028202020205C2F7C202820207B
:100270002029207C7C20205C202028207C20207CC1
:10028000202820202920207C28205C2020202F20AE
:1002900029282028202020205C2F0A0D2020207CC7
:1002A000207C2020207C20285F5F5F29207C7C2010
:1002B0007C2020207C207C2020207C207C20202072
:1002C0007C207C2020202020207C207C2020207C62
:1002D000207C7C2020205C207C207C20207C207CBA
:1002E000202F2020207C205C20285F29202F207CAC
:1002F00020285F5F5F5F20200A0D2020207C207C6B
:100300002020207C20205F5F5F20207C7C207C20C0
:1003100020207C207C2020207C207C2020207C2011
:100320007C2020202020207C207C2020207C207C01
:100330007C20285C205C29207C20207C20282F2009
:100340002F29207C202029205F202820207C20208D
:100350005F5F5F205C200A0D2020207C207C202015
:10036000207C202820202029207C7C207C2020200C
:100370007C207C2020207C207C2020207C207C2055
:1003800020202020207C207C2020207C207C7C20A1
:100390007C205C2020207C20207C2020202F207CA2
:1003A000207C202F20282029205C207C2028202031
:1003B000202920290A0D2020207C207C2020207C40
:1003C000202920202028207C7C20285F5F5F292096
:1003D0007C2020207C207C2020207C20285F5F5FE8
:1003E0005F2D2D7C20285F5F5F29207C7C202920C9
:1003F000205C20207C20207C2020285F5F29207C1E
:1004000028202F2020205C20292820285F5F5F29BA
:1004100020290A0D202020295F282020207C2F2041
:10042000202020205C7C285F5F5F5F5F5F5F29206A
:100430002020295F28202020285F5F5F5F5F5F5FAB
:100440002F285F5F5F5F5F5F5F297C2F2020202068
:10045000295F292020285F5F5F5F5F5F5F297C2F16
:1004600020202020205C7C205C5F5F5F5F5F2F206E
:100470000A0D2020202020202020202020202020A5
:10048000202020202020202020202020202020206C
:10049000202020202020202020202020202020205C
:1004A000202020202020202020202020202020204C
:1004B000202020202020202020202020202020203C
:1004C00020202020202020202020202020200A0D55
:1004D0002020202020202020202020202020205FDD
:1004E0005F5F5F5F5F2020205F5F5F5F5F5F5F2018
:1004F000205F5F5F5F5F5F2020205F5F5F5F5F5F08
:100500005F20205F5F5F5F5F5F5F202020205F5F75
:100510005F5F5F5F2020205F5F5F5F5F5F5F202026
:100520002020202020202020202020200A0D2020F4
:100530002020202020202020202020202820205F74
:100540005F5F205C202820205F5F5F20202928201B
:10055000205F5F20205C202820205F5F5F5F205CA1
:100560002820205F5F5F5F205C20202820205F5FC5
:100570005F205C202820205F5F5F5F205C202020C0
:10058000202020202020202020200A0D2020202094
:10059000205F5F5F20205F5F5F207C20282020207D
:1005A0002920297C202820202029207C7C2028200C
:1005B000205C2020297C2028202020205C2F7C20EB
:1005C00028202020205C2F20207C2028202020296B
:1005D00020297C2028202020205C2F205F5F5F20A6
:1005E000205F5F5F202020200A0D20202020285F30
:1005F0005F5F29285F5F5F297C20285F5F2F202FA6
:10060000207C20285F5F5F29207C7C207C202020AC
:1006100029207C7C207C2020202020207C20285F1A
:100620005F2020202020207C20285F5F2F202F208B
:100630007C20285F5F5F5F5F20285F5F5F29285F06
:100640005F5F292020200A0D20202020205F5F5F8F
:1006500020205F5F5F207C20205F5F202820207C9F
:1006600020205F5F5F20207C7C207C2020207C205D
:100670007C7C207C205F5F5F5F207C20205F5F2987
:1006800020202020207C20205F5F20282020285F41
:100690005F5F5F5F202029205F5F5F20205F5F5FDB
:1006A000202020200A0D20202020285F5F5F29289D
:1006B0005F5F5F297C202820205C205C207C202834
:1006C00020202029207C7C207C20202029207C7C4C
:1006D000207C205C5F2020297C20282020202020D6
:1006E0002020207C202820205C205C20202020202E
:1006F000202029207C285F5F5F29285F5F5F2920F9
:1007000020200A0D20202020202020202020202012
:1007100020207C20295F5F5F2920297C2029202040
:100720002028207C7C20285F5F2F2020297C202807
:100730005F5F5F29207C7C20285F5F5F5F2D2D201D
:10074000207C20295F5F5F2920292F5C5F5F5F5F2E
:1007500029207C2020202020202020202020202034
:100760000A0D2020202020202020202020202020B2
:100770007C2F205C5F5F5F2F207C2F20202020209B
:100780005C7C285F5F5F5F5F5F2F20285F5F5F5F3C
:100790005F5F5F29285F5F5F5F5F5F5F2F20207C67
:1007A0002F205C5F5F5F2F205C5F5F5F5F5F5F5F3D
:1007B00029202020202020202020202020200A0D59
:1007C00000557365205B435D20746F207365742052
:1007D0006120636F6C6F722076616C756500557374
:1007E00065205B505D20746F2073656C65637420B9
:1007F0006120706978656C21000D0A536574746915
:100800006E67206272696768746E657373206C65C9
:1008100076656C2000456E74657220427269676867
:10082000746E657373205B31202D203132385D3A50
:100830002000507265737320616E79206B6579209A
:10084000746F2073746F7265207369676E616C20BA
:100850000020536861726B73207377696D20626545
:10086000737420696E20717569657420776176658F
:10087000733A200009206D61783A00537061636516
:10088000206D696E3A0009206D61783A004D617201
:100890006B20206D696E3A00457874656E743D007A
:1008A00009200009002073003A6D00202073002009
:1008B00020486561643A206D00293A204761703A0A
:1008C000005261772073616D706C6573280020623F
:1008D0006974732900202800293A2056616C7565D7
:1008E0003A0028004465636F6465642000486173C2
:1008F0006820436F6465004E454378004A564300C4
:1009000050616E61736F6E6963204F6C6400524377
:10091000360052433500536F6E79004E4543005503
:100920006E6B6E6F776E000000000200090F000012
:10093000030401000C0000000000000000000000A3
:100940000000000000040802011040804010204018
:1009500080408008020401804020100201108010B5
:1009600020404004040404040304050202020204BB
:10097000030202020206060606060604040202023A
:1009800004000000002300260029002C002F000096
:10099000000000250028002B002E00310000000080
:1009A00000240027002A002D003000080B0002025E
:1009B00002010009040000010202000005240010E9
:1009C0000105240101010424020605240600010793
:1009D00005810310004009040100020A000000071D
:1009E0000502024000000705830240000000C180AC
:1009F00081C1120100020200004041233680000143
:100A00000102000112010002000000404123368073
:100A100000010102000141726475696E6F204C4C47
:100A2000430041726475696E6F204C656F6E617230
:100A3000646F000403090400000000000000002AA5
:100A40002B28000000000000000000000000000053
:100A5000000000000000002C9EB4A0A1A2A434A6B7
:100A6000A7A5AE362D3738271E1F20212223242587
:100A700026B333B62EB7B89F8485868788898A8B3C
:100A80008C8D8E8F909192939495969798999A9B2E
:100A90009C9D2F3130A3AD350405060708090A0BCC
:100AA0000C0D0E0F101112131415161718191A1B0E
:100AB0001C1DAFB1B0B50009040200010300000025
:100AC000092101010001226500070584034000019E
:100AD00005010902A1010901A1008501050919010A
:100AE00029031500250195037501810295017505FE
:100AF000810305010930093109381581257F750801
:100B000095038106C0C005010906A10185020507FC
:100B100019E029E715002501750195088102950165
:100B200075088103950675081500256505071900E8
:100B300029658100C0003B10C3177526AA2E112419
:100B40001FBECFEFDAE0DEBFCDBF16E0A0E0B1E020
:100B5000E4EFF3E602C005900D92A03BB107D9F790
:100B600028E0A0EBB6E001C01D92AD36B207E1F778
:100B70001BE0CEE3DBE004C02297FE010E94B4300C
:100B8000C633D107C9F70E9493260C94F8310C9410
:100B90000000549A08956115710581F0DB010D90F4
:100BA0000020E9F7AD0141505109461B570BDC010C
:100BB000ED91FC910280F381E02D099480E090E0BA
:100BC0000895FC0160810C94F616CF92DF92EF92AB
:100BD000FF926B017C011C141D041E041F04B4F45D
:100BE00060E08AE00E9444258AE090E00E946E2442
:100BF00061E08AE00E9444258AE090E00E946E2431
:100C00008AE1C81AD108E108F108E5CFFF90EF901A
:100C1000DF90CF90089568EC70E080E090E00C9455
:100C2000E50568E572E080E090E00C94E5058F92C0
:100C30009F92AF92BF92DF92EF92FF920F931F931A
:100C4000CF93DF9300D000D0CDB7DEB769837A832E
:100C50008B839C838A81992787FD9095860F911DB0
:100C600067FD9A952B81820F911D27FD9A95DC8057
:100C7000D80E43E0E42EF12C812C912CA12C50E8CD
:100C8000B52E00E010E0D501C401002E04C0B695D9
:100C9000A795979587950A94D2F749815A816B81D8
:100CA0007C8184239523A623B723892B8A2B8B2B26
:100CB00019F00E94110602C00E940B0684E690E023
:100CC0000E946E240F5F1F4F00321105E1F688E885
:100CD00093E10E946E2481E0E81AF10891F600E0A9
:100CE00010E030E8E32EF12CAD2CBB24A7FCB0942F
:100CF000C701002E02C0959587950A94E2F78A21D4
:100D00009B21892B19F00E94110602C00E940B063C
:100D100084E690E00E946E240F5F1F4F083011059B
:100D200039F70F900F900F900F90DF91CF911F9197
:100D30000F91FF90EF90DF90BF90AF909F908F90BA
:100D40000895CF93DF93EC0102960E94AB19EDED6D
:100D5000F5E0A489B58916970D90BC91A02DAC0F34
:100D6000BD1F868997898D939C93A08DB18D169711
:100D70000D90BC91A02DAC0FBD1F828D938D509610
:100D80009C938E931F97A2A1B3A116970D90BC912F
:100D9000A02DAC0FBD1F84A195A154969C938E935A
:100DA0005397CE014196248D358DD90116970D901C
:100DB000BC91A02DA80FB91F468D578D4D935C9304
:100DC000D90118970D90BC91A02DA80FB91F80A133
:100DD00091A18D939C93CE014B9626A137A1D90169
:100DE00016970D90BC91A02DA80FB91F40A551A535
:100DF0004D935C93D90118970D90BC91A02DA80F2D
:100E0000B91F82A593A58D939C93A4A5B5A516970C
:100E10000D90BC91A02DAC0FBD1F86A597A55E9629
:100E20009C938E935D97A0A9B1A916970D90BC9144
:100E3000A02DAC0FBD1F82A993A990969C938E9371
:100E40005F97A4A9B5A916970D90BC91A02DAC0FE2
:100E5000BD1F86A997A992969C938E9391978DE238
:100E600096E09983888389E396E09B838A8387E46D
:100E700096E0988B8F8783E596E09A8B898B8BE53C
:100E800096E09C8B8B8B85E696E09C8F8B8F8FE614
:100E900096E09E8F8D8F89E796E098A38F8F83E8E9
:100EA00096E09AA389A3DF91CF910895FF920F93C3
:100EB0001F93CF93DF9300E010E0FF24FA94C091DA
:100EC0000305D0910405F801ED5FF84FF082F1823F
:100ED000F282CE010E94E10564EF71E080E090E0D3
:100EE0000E9446240D5F1F4F0231110561F714E087
:100EF0001093200764E670E080E090E00E944624B2
:100F0000CE010E94E1051F5F103191F71093200779
:100F100064E670E080E090E00E944624CE010E94EA
:100F2000E1051150143091F780E280932007CE0143
:100F3000DF91CF911F910F91FF900C94E1051F92CB
:100F40000F920FB60F9211242F933F934F935F93FD
:100F50006F937F938F939F93AF93BF93EF93FF9381
:100F600080910A0190910B01892B79F440E855E2B8
:100F700060E070E087E098E00E94602681E090E009
:100F800090930B0180930A0106C068E371E087E04B
:100F900098E00E942227FF91EF91BF91AF919F911E
:100FA0008F917F916F915F914F913F912F910F9012
:100FB0000FBE0F901F90189583B7817F866083BF07
:100FC00083B7816083BF83B7816083BF889583B710
:100FD0008E7F83BF83B78E7F83BFE4E6F0E080819E
:100FE00080718083E5E6F0E08081867780830895D4
:100FF000FC01EE0FFF1FE80FF91FED5FF84F462FC2
:10100000407C262F2073220F220F862F8C70829512
:10101000807F637075E0761B50E0072E02C0559507
:1010200047950A94E2F7408330E0072E02C03595D9
:1010300027950A94E2F7218390E002C09595879561
:101040007A95E2F782830895BF92CF92DF92EF9272
:10105000FF920F931F93CF93DF93B82E03E010E01E
:10106000E0900305F0900405CB2CC0E0D0E0E8EF61
:10107000DE2EC630D1059CF46C2D772767FD709568
:1010800085E197E00E940C16D82E88EFD81639F02B
:101090006D2DCE010E94F8072196C394EACFC701B7
:1010A0000E94E10568EC70E080E090E00E94462438
:1010B00088EFD81619F0C0E0D0E0DBCF60E0C701C0
:1010C0000E94A41764EF71E080E090E00E94462443
:1010D0000150110949F6DF91CF911F910F91FF90B7
:1010E000EF90DF90CF90BF9008957F928F929F9264
:1010F000AF92BF92CF92DF92EF92FF920F931F9326
:10110000CF93DF936C01C0E0D0E0F6E0AF2EB12CBE
:101110008090030590900405BE016C0D7D1D85E156
:1011200097E00E940C16782E05E010E0C8010596A5
:10113000B5010E945D307C01672D0E94F807C40153
:101140000E94E10564E670E080E090E00E944624A1
:10115000015011090C171D072CF060E0C7010E9417
:10116000F807E4CF68EC70E080E090E00E9446244D
:101170002196C630D10581F6DF91CF911F910F9155
:10118000FF90EF90DF90CF90BF90AF909F908F90A7
:101190007F900895CF92DF92EF92FF920F931F936B
:1011A000CF93DF93EC01009103051091040526E035
:1011B00030E040E050E060E070E0CB010E94572D4D
:1011C0006B017C01BE0185E197E00E940C16883F0F
:1011D00001F1682FC6010E94F807C8010E94E105CD
:1011E00062E370E080E090E00E94462426E030E078
:1011F00040E050E060E070E0CB010E94572DDC0140
:10120000CB0160E00E94F8072196CF3F83E0D8072A
:1012100074F2DF91CF911F910F91FF90EF90DF90CB
:10122000CF900895CF92DF92EF92FF920F931F938A
:10123000CF93DF93CDB7DEB762970FB6F894DEBFDA
:101240000FBECDBF6C01E12CF12C00E010E0B80125
:101250006C0D7D1D85E197E00E940C16682FC8017A
:101260000E94F807D701AD5FB84FE1E0F0E0EC0F66
:10127000FD1FEE0DFF1D8C91808311968C911197AF
:10128000818312968C9182830F5F1F4F83E0E80E5B
:10129000F11C06301105D9F60091030510910405E3
:1012A000C8010E94E10568EC70E080E090E00E94D7
:1012B0004624A3E0EA2EA7E0FA2EB2E1DB2EF701E6
:1012C0008D2D11928A95E9F7C8010E94E10568EC1D
:1012D00070E080E090E00E944624FE013196D70144
:1012E0008D2D01900D928A95E1F7C8010E94E105CC
:1012F00068EC70E080E090E00E944624F7018D2DBC
:1013000011928A95E9F7C8010E94E10568EC70E046
:1013100080E090E00E944624FE013196D7018D2D99
:1013200001900D928A95E1F7C8010E94E10568ECF1
:1013300070E080E090E00E944624F7018D2D11922C
:101340008A95E9F7C8010E94E10564EF71E080E049
:1013500090E00E944624FE013196D7018D2D019028
:101360000D928A95E1F7C8010E94E10564EF71E0F2
:1013700080E090E00E944624F7018D2D11928A951D
:10138000E9F7C8010E94E10568EC70E080E090E0B8
:101390000E944624FE013196D7018D2D01900D92B9
:1013A0008A95E1F7C8010E94E10564EF71E080E0F1
:1013B00090E00E944624F7018D2D11928A95E9F75D
:1013C000C8010E94E10568EC70E080E090E00E94B6
:1013D0004624FE013196D7018D2D01900D928A95FC
:1013E000E1F7C8010E94E10564EF71E080E090E060
:1013F0000E944624F7018D2D11928A95E9F7C801C4
:101400000E94E10564EF71E080E090E00E944624D4
:10141000FE013196D7018D2D01900D928A95E1F74D
:10142000C8010E94E10568EC70E080E090E00E9455
:101430004624F7018D2D11928A95E9F7C8010E9483
:10144000E10568EC70E080E090E00E944624FE0137
:101450003196D7018D2D01900D928A95E1F7C80143
:101460000E94E10568EC70E080E090E00E94462474
:10147000F7018D2D11928A95E9F7C8010E94E105C7
:1014800068EC70E080E090E00E944624FE01319616
:10149000D7018D2D01900D928A95E1F7C8010E9428
:1014A000E10568EC70E080E090E00E944624F701DE
:1014B0001192DA94E9F7C8010E94E10568EC70E046
:1014C00080E090E00E94462468EE73E080E090E0C7
:1014D0000E94462462960FB6F894DEBF0FBECDBFC1
:1014E000DF91CF911F910F91FF90EF90DF90CF9000
:1014F0000895DF92EF92FF920F931F93CF93DF93A4
:101500008C01C0E0D0E088EFD82EE0900305F09089
:101510000405C630D1058CF4B80185E197E00E943E
:101520000C16D82E88EFD81641F06D2DCE010E94F2
:10153000F8070F5F1F4F2196ECCFC7010E94E1050E
:1015400068EE73E080E090E00E94462488EFD816B1
:1015500031F0043D11051CF4C0E0D0E0DACFDF919A
:10156000CF911F910F91FF90EF90DF9008959F9280
:10157000AF92BF92CF92DF92EF92FF920F931F93A1
:10158000CF93DF93A82E992E03E010E0E09003059F
:10159000F09004056A2D792D6B018FEFC81AD80AD7
:1015A00085E197E00E940C16B82E88EFB816A9F0D6
:1015B000C0E0D0E06B2DCE010E94F807C7010E9469
:1015C000E1056AE070E080E090E00E944624219608
:1015D000C630D10579F7B601DFCF01501109D1F638
:1015E000DF91CF911F910F91FF90EF90DF90CF90FF
:1015F000BF90AF909F900895CF9362E070E085E137
:1016000097E00E940C16C82F87E098E00E9466269B
:10161000C5FF03C069E070E038C0C2FF0BC066E0E0
:1016200070E085E197E00E940C1690E00C960E9415
:10163000120933C0C4FF0BC068E070E085E197E099
:101640000E940C1690E00C960E94240826C0C3FF4E
:101650000BC067E070E085E197E00E940C1690E017
:101660000C960E94750819C0C1FF0BC065E070E0C0
:1016700085E197E00E940C1690E00C960E94CA0843
:101680000CC0C0FF0AC064E070E085E197E00E94F2
:101690000C1690E00C960E94790AC6FF03C06AE01F
:1016A00070E004C0C7FF0AC06BE070E085E197E01E
:1016B0000E940C1690E00C960E94B70A60E08091A0
:1016C000030590910405CF910C94A417CF92DF925B
:1016D000EF92FF920F931F93CF93DF9300D000D030
:1016E000CDB7DEB78E010F5F1F4FE12CF12C6801E3
:1016F000B70185E197E00E940C16F80181938F01F4
:10170000FFEFEF1AFF0A84E0E816F10489F7C6013B
:101710000E942B2D62E082E10E940B2561E08AE0AD
:101720000E940B2561E08AE00E94442510927A0015
:101730008091C206811145C01092B4061092B30682
:101740008FEF8093B7068093B8068093B906809395
:10175000BA068093BB068093BC0681E08093BD06E9
:101760001092BF061092BE061092B6061092B506F1
:1017700080911E0790911F07892B31F481EB96E031
:1017800090931F0780931E07E0911C07F0911D079F
:10179000309721F081EB96E09583848381EB96E08E
:1017A00090931D0780931C071092C1061092C006EB
:1017B0008BEF94E09093B2068093B10681E0809322
:1017C000C20620E030E046E050E063E077E081EBE5
:1017D00096E00E945C16809103059091040524E038
:1017E000FC01208320E030E0F901ED5FF84F10822A
:1017F000118212822D5F3F4F22313105A9F70E94DD
:10180000E10544EF51E060E070E087E098E00E947D
:10181000DA2840E659E060E070E087E098E00E9456
:10182000602610920107109200070E9456070E943E
:10183000FC0A0F900F900F900F90DF91CF911F91A6
:101840000F91FF90EF90DF90CF90089587E098E0A0
:101850000E9466268823F1F064EF71E080E090E05A
:101860000E9446246DE371E087E098E00E94F32631
:1018700062E471E087E098E00E94F32662E871E09C
:1018800087E098E00E94CE2666E471E087E098E069
:101890000C94222708950F931F93CF93DF9387E033
:1018A00098E00E946626882309F4C3C064EF71E0C3
:1018B00080E090E00E94462480911201833009F478
:1018C00074C008F067C0813009F46CC0823009F040
:1018D000B0C06DEE71E087E098E00E94222763E5DA
:1018E00072E087E098E00E94F3264AE050E06091C1
:1018F0000D0187E098E00E94162864E672E087E018
:1019000098E00E94F32680910D0190E00197FC0180
:10191000EE0FFF1FE80FF91FED5FF84F40E150E0B9
:10192000608187E098E00E94162880910D0190E088
:101930000197FC01EE0FFF1FE80FF91FED5FF84F55
:1019400040E150E0618187E098E00E941628809194
:101950000D0190E00197FC01EE0FFF1FE80FF91F4A
:10196000ED5FF84F40E150E0628187E098E00E942F
:10197000162862E772E087E098E00E94F3264AE0CA
:1019800050E060910C0187E098E00E9416286DE419
:1019900072E047C08530D1F0863009F04AC063E27A
:1019A00073E03FC069E771E03CC063E070E085E14F
:1019B00097E00E940C1687FF03C067E872E031C011
:1019C00081E08093120162ED72E02BC06AEC70E05E
:1019D00087E098E00E941027C0E0D0E000E010E02F
:1019E000BE0185E197E00E940C1621E030E08F3FB8
:1019F00011F020E030E0020F131F2196C11584E0A2
:101A0000D80771F764E173E087E098E00E94F3265D
:101A10004AE050E0B80187E098E00E94342866E18F
:101A200073E087E098E0DF91CF911F910F910C94C4
:101A30002227DF91CF911F910F91089587E098E0C1
:101A40000E9466268823C9F168E573E087E098E084
:101A50000E94F32660E070E085E197E00E940C169A
:101A600040E150E0682F87E098E00E94162861E08E
:101A700070E085E197E00E940C1640E150E0682F8D
:101A800087E098E00E94162867E773E087E098E017
:101A90000E94F3266FEF73E085E197E00E940C1639
:101AA0004AE050E0682F87E098E00E94162866E838
:101AB00073E087E098E00C9422270895FF920F933B
:101AC0001F93CF93DF93EC018091B0068F5F982F27
:101AD00097709093B00680FD02C080E001C080E85E
:101AE00091FD8064947009F0806250E1F52EF80E4B
:101AF00020E030E000E011E0FE01E20FF31F62851C
:101B0000662331F070E0C8010E945D306F5F01C054
:101B100060E067834F2D469F412D11244483662347
:101B200011F0615067832F5F3F4F2330310521F75C
:101B3000DF91CF911F910F91FF9008952F923F92C7
:101B40004F925F926F927F928F929F92AF92BF92CD
:101B5000CF92DF92EF92FF920F931F93CF93DF9379
:101B6000CDB7DEB761970FB6F894DEBF0FBECDBF1D
:101B70006C015A01F901DC011C968C917A8369830E
:101B80005C834B8390819B8791819C8792819D8709
:101B9000813029F4CE0101960E945E0D06C01A869E
:101BA000198618861F821E821D8289819A818E0D58
:101BB000911D9A838983002319F083E08E0D01C063
:101BC00080E08E870E942324F60127853089621BDE
:101BD000730B62337105B0F3F894E981FA818BB12C
:101BE0005C9859848E81452D481B4E8371817723E3
:101BF00021F0740F08F47FEF01C070E02C85729F14
:101C0000712D11248E85AB81BC819B853D856D80B6
:101C1000688A7F80798A38844A84E12C1F86212C47
:101C2000F12C3D0161E0661A7108AB2B09F499C1F2
:101C3000052D041B402F132D5889151B188B642D5F
:101C40000989601B698B9BB0192D1061912E8BB097
:101C5000582D5F7E852ED301122D0F857888662E34
:101C60006F2D5E2D9BB800C077FF8BB86081112768
:101C7000889400C000C0002C8BB86111670D00C0B3
:101C8000002C9BB800C076FF8BB808F46FEF8894E7
:101C900000C000C000C08BB890FD160F00C0002C23
:101CA0009BB800C075FF8BB81795889491FD160FEF
:101CB00000C000C0002C8BB81795889400C0002C81
:101CC0009BB800C074FF8BB892FD160F17958894CF
:101CD00000C000C0002C8BB893FD160F00C0002C74
:101CE0009BB800C073FF8BB81795889494FD160FAE
:101CF00000C000C0002C8BB81795889400C0002C41
:101D00009BB800C072FF8BB895FD160F179588948D
:101D100000C000C0002C8BB896FD160F00C0002C30
:101D20009BB800C071FF8BB81795889497FD160F6C
:101D300000C000C0002C8BB81795889400C0002C00
:101D40009BB800C070FF8BB800C000C0002C00C062
:101D500000C08BB800C000C0002C9BB800C017FFAB
:101D60008BB862810027889400C000C0002C8BB81B
:101D70006111660D00C0002C9BB800C016FF8BB827
:101D800008F46FEF889400C000C000C08BB830FD2D
:101D9000060F00C0002C9BB800C015FF8BB807953C
:101DA000889431FD060F00C000C0002C8BB8079549
:101DB000889400C0002C9BB800C014FF8BB832FD83
:101DC000060F0795889400C000C0002C8BB833FD27
:101DD000060F00C0002C9BB800C013FF8BB80795FE
:101DE000889434FD060F00C000C0002C8BB8079506
:101DF000889400C0002C9BB800C012FF8BB835FD42
:101E0000060F0795889400C000C0002C8BB836FDE3
:101E1000060F00C0002C9BB800C011FF8BB80795BF
:101E2000889437FD060F00C000C0002C8BB80795C2
:101E3000889400C0002C9BB800C010FF8BB8E80F3E
:101E4000F11D889400C000C000C08BB800C000C065
:101E5000002C9BB800C007FF8BB86181772788945E
:101E600000C000C0002C8BB86111640F00C0002CB2
:101E70009BB800C006FF8BB808F46FEF889400C0D1
:101E800000C000C08BB820FD760F00C0002C9BB8AE
:101E900000C005FF8BB87795889421FD760F00C0B0
:101EA00000C0002C8BB87795889400C0002C9BB89C
:101EB00000C004FF8BB822FD760F7795889400C090
:101EC00000C0002C8BB823FD760F00C0002C9BB8FF
:101ED00000C003FF8BB87795889424FD760F00C06F
:101EE00000C0002C8BB87795889400C0002C9BB85C
:101EF00000C002FF8BB825FD760F7795889400C04F
:101F000000C0002C8BB826FD760F00C0002C9BB8BB
:101F100000C001FF8BB87795889427FD760F00C02D
:101F200000C0002C8BB87795889400C0002C9BB81B
:101F300000C000FF8BB800C000C0002C00C000C073
:101F40000F87F62E788A698A612F1F2D8BB8698AD0
:101F5000788AE52EF12E0F87262E00C000C0002CB7
:101F600060CE20EE31E0D5010E94B8306130A0E4AF
:101F70007A0781059105B0F00091FF0710910008E4
:101F80002091010830910208DC01CB016EE0B6958A
:101F9000A795979587956A95D1F7800F911FA21FF6
:101FA000B31F0BC08091FF0790910008A09101081A
:101FB000B09102080196A11DB11D8093FF07909377
:101FC0000008A0930108B093020878940E9423248B
:101FD000F601708B678761960FB6F894DEBF0FBE6F
:101FE000CDBFDF91CF911F910F91FF90EF90DF90C8
:101FF000CF90BF90AF909F908F907F906F905F90A9
:102000004F903F902F900895EF92FF920F93E12C05
:10201000F12C00E00E949E0D0F91FF90EF9008952B
:10202000EF92FF920F93E12CF12C01E00E949E0DA4
:102030000F91FF90EF900895EF92FF920F93CF933F
:10204000DF9300D01F92CDB7DEB7AB0119821A82A1
:102050001B82E12CF12C00E09E012F5F3F4FB90164
:102060000E949E0D0F900F900F90DF91CF910F91D6
:10207000FF90EF90089562E18DEF96E00E94562167
:102080008FE896E09093FE068093FD068AED96E039
:102090000C94A10687E098E00E946626882331F020
:1020A00064EB73E087E098E00E94F32687E098E015
:1020B0000E94CD25892BD1F387E098E00E94DD2591
:1020C0000895EF92FF920F931F93CF93DF9387E0D2
:1020D00098E00E94CD25892BD1F30AEC16E0C0E0F0
:1020E000D0E087E098E00E94DD257801F801819337
:1020F0008F01682F87E098E00E94A325F701808177
:102100008D3071F4C653D94F19826AEC76E087E0BE
:1021100098E00E94CB0587E098E00E94FC260CC066
:1021200087E098E00E94CD25892BD1F32196CF300E
:10213000D105B9F61092D9068AEC96E0DF91CF91DD
:102140001F910F91FF90EF900895EF92FF920F93E0
:102150001F93CF93DF93CDB7DEB72E970FB6F894CA
:10216000DEBF0FBECDBF7C0149E050E067EC73E0FD
:10217000CE0101960E9486318E01065F1F4F40E11D
:10218000B801C7010E949A3149E050E0B801CE0180
:1021900001960E946731F80101900020E9F7BF0124
:1021A00061507109601B710B81E090E08C0F9D1FE5
:1021B000680F791F87E098E00E94F32660E287E0CD
:1021C00098E00E94A3252E960FB6F894DEBF0FBEAE
:1021D000CDBFDF91CF911F910F91FF90EF900895A8
:1021E0003F924F925F926F927F928F929F92AF92A7
:1021F000BF92CF92DF92EF92FF920F931F93CF93F4
:10220000DF93CDB7DEB762970FB6F894DEBF0FBE8F
:10221000CDBF8C016B01C80ED91ECE0101967C0189
:102220005E0191E1A90EB11C70E2372EE0E18E2E25
:10223000912C0C151D050CF05EC0F7013192EA15CA
:10224000FB05E1F7198AC801B4010E945D303C0129
:10225000C801861997090E94A5102701C2018E198D
:102260009F098615970554F4F20131922F016CEC09
:1022700073E087E098E00E94F326F0CF77FE02C07B
:10228000612C712C601A710A6E0C7F1CB80185E1FB
:1022900097E00E940C16682F992787FD90956A8B0E
:1022A0000E9461316A89892B11F48EE201C0862F68
:1022B000F301E00FF11F808340E150E087E098E0F8
:1022C0000E94162860E287E098E00E94F5260F5FE2
:1022D0001F4FC8018F709927892B19F00C151D0508
:1022E000A9F6B70187E098E00E94F32687E098E01E
:1022F0000E94FC269ECF62960FB6F894DEBF0FBEFA
:10230000CDBFDF91CF911F910F91FF90EF90DF90A4
:10231000CF90BF90AF909F908F907F906F905F9085
:102320004F903F900895AF92BF92DF92EF92FF924D
:102330000F931F93CF93DF931F92CDB7DEB70E9409
:1023400061108091CA06992787FD90950E945431AB
:10235000892B09F444C09AECE92E96E0F92E00E0AE
:1023600010E0A12CB12CF70121917F01822F992738
:1023700087FD909529830E9454312981892BE1F0B2
:1023800084E0000F111F8A95E1F72A331CF4B0EDA9
:10239000DB2E09C027341CF4AFEBDA2E04C027363D
:1023A0001CF4FFE9DF2ED20E0D298FEFA81AB80A10
:1023B000E3E0AE16B104B9F61093110100931001D9
:1023C000F501E653F94F80818C3249F4C5018553FC
:1023D000994F0E94363190930F0180930E016091C6
:1023E0000E0170910F0180911001909111010E94D6
:1023F000F010809110019091110120910E01309107
:102400000F01820F931F90931101809310010F9081
:10241000DF91CF911F910F91FF90EF90DF90BF90D0
:10242000AF900895EF92FF920F931F93CF93DF9396
:1024300087E098E00E94DD2587E098E00E94FC2676
:1024400043E0E42EF12C809110019091110103974B
:102450008D3F934020F0F0921101E09210018091A5
:102460001001909111010E94A510609110017091CE
:10247000110185E197E00E940C1640E150E0682FC1
:1024800087E098E00E94162860ED73E087E098E00E
:102490000E94F326CFEFDFEF87E098E00E94CD2582
:1024A000892BD1F387E098E00E94DD258C01682F0D
:1024B00087E098E00E94F5260A33110554F40033B2
:1024C0001105A4F40D301105E1F10E32110511F3DF
:1024D0005BC0013411050CF457C007341105B4F08A
:1024E000C801815691090697C0F04EC000531109EA
:1024F000CF3F8FEFD80711F4C0E0D0E034E0CC0F2D
:10250000DD1F3A95E1F7C02BD12BC6CF0753110938
:10251000CF3F2FEFD20749F406C007551109CF3F2F
:102520008FEFD80711F4C0E0D0E024E0CC0FDD1F1E
:102530002A95E1F7C02BD12B0D30110509F0ACCF56
:1025400006C0CF3F2FEFD20711F4CEEFDFEF87E0C9
:1025500098E00E94FC26CF3F8FEFD807A9F0D7FD67
:1025600009C060911001709111014C2F85E197E035
:102570000E940F1680911001909111010196909385
:102580001101809310015FCFDF91CF911F910F91C7
:10259000FF90EF900895CF9383E090E09093110126
:1025A0008093100180E290E090930F0180930E01E0
:1025B00064ED73E087E098E00E94CB0567EE73E07E
:1025C00087E098E00E94CB056EE274E087E098E037
:1025D0000E94CB0587E098E00E94CD2518161906C9
:1025E000CCF787E098E00E94DD25C82F682F87E0B0
:1025F00098E00E94F526C33579F02CF4C43449F0F4
:10260000CB34A1F00BC0CB3689F0C33729F0C436E8
:1026100029F40E94931102C00E94121287E098E0F0
:102620000E94DD2518161906CCF3CECFCF91089560
:102630005F926F927F928F929F92AF92BF92CF9252
:10264000DF92EF92FF920F931F93CF93DF9300D00F
:1026500000D0CDB7DEB763E0862EA0900305B09022
:1026600004059924939476E0772EE5E06E2EF2E04F
:102670005F2E87E098E00E946626882309F431C225
:102680008091000790910107892B09F02AC287E009
:1026900098E00E94CA250E94260C0E944B0C0E94C2
:1026A0001E0D0E944A10182F682F87E098E00E94A4
:1026B0003427113569F46DE371E087E098E00E94FA
:1026C000F32681E090E09093010780930007D1CF3B
:1026D00012350CF05EC0143459F58091120182302D
:1026E000E1F480910D01811103C06EED77E006C029
:1026F0008091020781110DC061EC77E087E098E0DE
:102700000E94102768EE73E080E090E00E9446246B
:10271000B0CFC5010E94E105ACCF68E974E087E065
:1027200098E00E94222787E098E00E94CA25A1CF66
:1027300015340CF027C11F3339F487E098E00E946C
:10274000CA256CEB74E00AC01034BCF41B3159F498
:1027500087E098E00E94CA2567EA74E087E098E085
:102760000E94222786CF1A3269F4809112018130AB
:1027700009F07FCF809212017CCF1234C9F013345C
:1027800009F44FC087E098E00E94CA2567EE74E024
:10279000E5CF193609F405C10CF04FC1133609F421
:1027A00040C00CF090C1133509F451C1123651F7F5
:1027B00080911201823009F05CCF65E178E087E01A
:1027C00098E00E94CE2644EF51E060E070E087E0A0
:1027D00098E00E94DA2887E098E00E94CD25892BB6
:1027E000D1F387E098E00E944F29662321F06138F9
:1027F00018F060E801C061E060930C0169EF77E0D8
:1028000087E098E00E94CE264AE050E060910C01FB
:1028100087E098E00E941D2880910C01809320079A
:1028200028CF80911201813011F4709212018091B1
:102830001201823009F01DCF61E374E087E098E077
:102840000E94F3264AE050E060910D0187E098E095
:102850000E94162860E574E087E098E00E94F32665
:1028600087E098E00E94CD25892BD1F387E098E09E
:102870000E944F296F3F710519F014F06FEF70E05F
:102880006B0177FF02C0C12CD12C4AE050E0B601A9
:1028900087E098E00E94E92769E574E087E098E026
:1028A0000E94F32687E098E00E94CD25892BD1F382
:1028B00087E098E00E944F296F3F710519F014F0EE
:1028C0006FEF70E07B0177FF02C0E12CF12C4AE052
:1028D00050E0B70187E098E00E94E92765E674E0E0
:1028E00087E098E00E94F32687E098E00E94CD25DB
:1028F000892BD1F387E098E00E944F296F3F710543
:1029000019F014F06FEF70E08B0177FF02C000E068
:1029100010E04AE050E0B80187E098E00E94F1271B
:1029200080910D0190E00197FC01EE0FFF1FE80F71
:10293000F91FED5FF84FC082E182028360E774E027
:1029400087E098E00E94F32640E150E0B60187E07E
:1029500098E00E94E92740E150E0B70187E098E065
:102960000E94E92740E150E0B80187E098E00E942A
:10297000F12764EF71E080E090E00E94462490929D
:10298000020777CE1B3419F49092120172CE1C34D8
:1029900084F4153419F40E94CB126BCE193409F06B
:1029A000F1CE80911201813009F063CE6092120164
:1029B00060CE1C3441F480911201813009F059CE6F
:1029C0005092120156CE103509F0DCCE80911201E2
:1029D000823009F04ECE44EF51E060E070E087E0D5
:1029E00098E00E94DA2862E874E087E098E00E94AC
:1029F000F32687E098E00E94CD25892BD1F321E0D2
:102A000030E040E050E06AE087E098E00E94522920
:102A100080E090E00E943631882329F0682F8730CB
:102A200018F066E001C061E060930D014AE050E0FB
:102A300087E098E00E941D281CCE103739F20CF474
:102A400049C0113709F437CE133709F09BCE809176
:102A50001201833009F00DCE8DEF96E00E94E4174D
:102A60006CED76E08DEF96E00E94B2218823C1F3F1
:102A700061E578E087E098E00E9410278AED96E013
:102A80000E9402218CED96E00E942E1868EE73E001
:102A900080E090E00E9446248DEF96E00E94E417CB
:102AA00068EE73E080E090E00E94462462E378E004
:102AB00087E098E00E94102787E098E00E94CD25EB
:102AC000892BD1F3D6CD143609F407CE153609F487
:102AD00062CF58CE1B3609F457CF1C3609F46BCFA2
:102AE00051CE0E94DC0724E630E040E050E061E097
:102AF00070E080E090E00E94572D6B017C0163E064
:102B000070E085E197E00E940C16282F2F738FE567
:102B100090E0821B9109AA2797FDA095BA2F8C15EA
:102B20009D05AE05BF053CF563E070E085E197E0EB
:102B30000E940C168F3F44F441E0480F63E070E0C0
:102B400085E197E00E940F1603E010E02AEF33E0E2
:102B500040E050E060E070E0CB010E94572DCB01D7
:102B60000E94CA080150110989F768EE73E080E0FD
:102B700090E00E9446240E94FC0A64E670E080E037
:102B800090E00E9446240E94FC0A64E670E080E027
:102B900090E00E9446240E94FC0A64E670E080E017
:102BA00090E00E944624009103051091040561E025
:102BB000C8010E94A417C8010E94E105CE01019638
:102BC0007C0100E010E06C01B80185E197E00E9413
:102BD0000C16F70181937F010F5F1F4F0430110521
:102BE00099F7B601882777FD8095982F0E941706E0
:102BF0000F900F900F900F90DF91CF911F910F9139
:102C0000FF90EF90DF90CF90BF90AF909F908F900C
:102C10007F906F905F900895CB010C94C731CB01EA
:102C2000642F0C94CF31CF92DF92EF92FF920F93EB
:102C30001F93CF93DF93FC018B01108211821282CC
:102C4000442381F1C0E0D0E0C42ED12CE12CF12C42
:102C5000D801AC0FBD1F16962C91169719966C9142
:102C60002223E1F06623D1F030E040E050E02F5F16
:102C70003F4F4F4F5F4F70E080E090E06F5F7F4FBE
:102C80008F4F9F4F0E9439309B01AC01C701B601A5
:102C90000E943930DF01AC0FBD1F8C932196C330E9
:102CA000D105B1F6CF01DF91CF911F910F91FF9028
:102CB000EF90DF90CF900895CF92DF92EF92FF9246
:102CC0000F931F93CF93DF93EC016B018A0179017E
:102CD000121613061CF07A0100E010E0E881F98179
:102CE0000480F581E02DCE010995C801880F991F58
:102CF000800F911F8C0D9D1D9B838A83FE86ED8620
:102D0000CE01DF91CF911F910F91FF90EF90DF9057
:102D1000CF900895CF93DF93C0911E07D0911F07E6
:102D2000209791F08A819B81009751F02D853E85F7
:102D3000A901440F551F420F531F60E00E94CB179B
:102D40000C80DD81C02DECCFDF91CF910895CF9223
:102D5000DF92EF92FF92CF93DF93EC0180911A07FD
:102D600090911B079C012F5F3F4F30931B072093CF
:102D70001A07861797079CF10E9417249B01AC0144
:102D8000E0911A07F0911B0788EE93E0E89FB001ED
:102D9000E99F700DF89F700D1124882777FD8095AD
:102DA000982FC0901607D0901707E0901807F09062
:102DB00019072C193D094E095F090E9471303A83A9
:102DC000298310921B0710921A070E941724609300
:102DD0001607709317078093180790931907DF91D0
:102DE000CF91FF90EF90DF90CF900895AF92BF9278
:102DF000CF92DF92EF92FF920F931F93CF93DF93C7
:102E000000D01F92CDB7DEB77C01B62E00911E0711
:102E100010911F070115110559F1D8011C96AC90AE
:102E20001C97F701818192818436910510F41C96DC
:102E30001C92D801ED91FC91C280D3804B2DB8013A
:102E4000CE0101960E941316F801458556856281D0
:102E500073819E012F5F3F4FC801F6010995D8018C
:102E60001C96AC921C9714960D911C911597D2CF7D
:102E700069E170E0C7010E94A7160F900F900F90B4
:102E8000DF91CF911F910F91FF90EF90DF90CF9046
:102E9000BF90AF9008958F929F92AF92BF92CF92C2
:102EA000DF92EF92FF920F931F93CF93DF9300D0A7
:102EB0001F92CDB7DEB77C016B01942E00911E07E7
:102EC00010911F070115110551F1D8011C968C9026
:102ED0001C97F701818192818436910510F41C962C
:102EE0001C92D801ED91FC91A080B180492DB801D0
:102EF000CE0101960E941316F801458556859E0164
:102F00002F5F3F4FB601C801F5010995D8011C9606
:102F10008C921C9714960D911C911597D3CF69E153
:102F200070E0C7010E94A7160F900F900F90DF91DD
:102F3000CF911F910F91FF90EF90DF90CF90BF90B6
:102F4000AF909F908F9008950F931F93CF93DF932F
:102F500000D01F92CDB7DEB78C01662349F01982ED
:102F60001A821B8240E0BE016F5F7F4F0E944B17A9
:102F7000C8010E948A160F900F900F90DF91CF9199
:102F80001F910F9108958FEF8093200710922207D1
:102F9000109221070895DC0140FF03C001C06D932A
:102FA0006D934250E0F75040D0F7089580E00895C7
:102FB000FC011282138214821582168217821286F5
:102FC00008951092F307089581E090E0909325070B
:102FD000809324071092F3070895CF93DF93CDB722
:102FE000DEB762970FB6F894DEBF0FBECDBF893053
:102FF0000CF080E02FE139E03A8329832BE139E0BE
:103000003C832B8326E139E03E832D8322E139E0A6
:1030100038872F832EE039E03A87298720E039E08E
:103020003C872B872CEF38E03E872D8727EF38E051
:10303000388B2F872DEE38E03A8B298BE82FEE0F57
:10304000FF0BEC0FFD1F8181928162960FB6F89401
:10305000DEBF0FBECDBFDF91CF9108952F923F927B
:103060004F925F926F927F928F929F92AF92BF9298
:10307000CF92DF92EF92FF920F931F93CF93DF9344
:10308000EC018A81893074F564EE78E087E098E09D
:103090000E94CE268A810E94ED17BC0187E098E04D
:1030A0000E94CE2662EE78E087E098E00E94CE266D
:1030B0006A81772767FD70954AE050E087E098E0E5
:1030C0000E94E92768ED78E087E098E00E94CE262C
:1030D0004B815C816D817E8120E130E087E098E06A
:1030E0000E94092865ED78E087E098E00E94CE26EE
:1030F0004AE050E06F8187E098E00E9416286EEC6D
:1031000078E087E098E00E94102761EC78E087E0A3
:1031100098E00E94CE264AE050E06A8587E098E079
:103120000E94162869EB78E087E098E00E94CE269E
:10313000E885F985608171814AE050E087E098E098
:103140000E943A286FEA78E087E098E00E94CE2655
:10315000E885F985628173814AE050E087E098E074
:103160000E9434286BEA78E087E098E00E94CE263F
:10317000E885F985648175814AE050E087E098E050
:103180000E943A28E885F9858281938144805580A0
:10319000480E591E612C712CC12CD12C212C312CA4
:1031A000AA24AA943FE7B32E88248A944FE7942E4A
:1031B00053E0E52EF12C8A8590E0E816F9060CF034
:1031C0006EC0E885F985C701880F991FE80FF91FC0
:1031D00000811181C801AA2797FDA095BA2F480E3A
:1031E000591E6A1E7B1EE0FE16C00A151B050CF454
:1031F0005801C016D1060CF46801B70175956795A2
:10320000615071094AE050E087E098E00E94E927A8
:1032100068EA78E00DC01016110624F408151905A7
:103220000CF44801201631060CF4180165EA78E028
:1032300087E098E00E94CE264AE050E0B80187E09F
:1032400098E00E94E92787010150110900FF06C09C
:1032500063EA78E087E098E00E94CE26C801837098
:103260009927019731F460EA78E087E098E00E94BE
:10327000CE26C80187709927019721F487E098E04E
:103280000E94FC260F7111270130110521F487E0FF
:1032900098E00E94FC268FEFE81AF80A8CCF87E0AE
:1032A00098E00E94FC2668E978E087E098E00E94B8
:1032B000CE262AE030E0B301A20187E098E00E9428
:1032C00050286DE878E087E098E00E94CE264AE03A
:1032D00050E0B50187E098E00E94E92766E878E0D1
:1032E00087E098E00E94CE264AE050E0B60187E0F1
:1032F00098E00E94F1276BE778E087E098E00E9471
:10330000CE264AE050E0B40187E098E00E94E92729
:1033100064E778E087E098E00E94CE264AE050E03B
:10332000B10187E098E00E94F12787E098E0DF9103
:10333000CF911F910F91FF90EF90DF90CF90BF90B2
:10334000AF909F908F907F906F905F904F903F9045
:103350002F900C94FC26FC0189E095E091838083FA
:103360008BE297E091878087138612821382148202
:10337000158216821782128608952F923F924F92DD
:103380005F926F927F928F929F92AF92BF92CF92F5
:10339000DF92EF92FF920F931F93CF93DF93CDB7FE
:1033A000DEB72E970FB6F894DEBF0FBECDBF1C015F
:1033B0003A872987BE82AD8281E0D1011C968C9329
:1033C0001C97662321F01A968C91861388C1F1010F
:1033D000938491103AC041155105B9F1A084B1848C
:1033E000D50112960D90BC91A02DBA83A983BA0184
:1033F00080E090E00E94482F2B013C0120E030E06B
:1034000040E45FE30E94D62F0E941C2FE981FA81DD
:10341000E617F70708F415C2D5011296AD90BC90D7
:10342000139720E030E040EA5FE3C301B2010E945D
:10343000D62F20E030E040E85FE30E94B82E0E94E3
:103440001C2F6A157B0508F4FCC182E0F10184871A
:1034500029853A852115310589F1A084B184D501EA
:1034600014968D909C901597B90180E090E00E9491
:10347000482F2B013C0120E030E040E45FE30E9454
:10348000D62F0E941C2F8616970608F428C1F50136
:10349000A480B58020E030E040EA5FE3C301B201E0
:1034A0000E94D62F20E030E040E85FE30E94B82E73
:1034B0000E941C2F6A157B0508F411C1D1011A96D0
:1034C0006C900115110509F463C0812C912C5401F5
:1034D000C601A0E0B0E089839A83AB83BC83C801B6
:1034E000A0E0B0E08D839E83AF83B887C701A0E0E2
:1034F000B0E089879A87AB87BC87D1011C967C9006
:10350000272D30E07614D8F5D10118964D905C90B7
:103510001997F901EE0FFF1FE40DF51DFE87ED87EA
:103520000081118169817A818B819C810E94482F61
:103530006B017C0120E030E040E45FE30E94D62F85
:103540000E941C2F0617170708F4C9C0AD85BE8559
:103550000D911C9120E030E040EA5FE3C701B60125
:103560000E94D62F20E030E040E85FE30E94B82EB2
:103570000E941C2F6017710708F07BC0B0C0C90102
:10358000019797FDC90195958795F101878369C0DA
:103590006A9483E0D1011C968C93812C912C540168
:1035A000C701A0E0B0E089839A83AB83BC83C601E6
:1035B000A0E0B0E089879A87AB87BC87AD81BE81E8
:1035C000CD01A0E0B0E08D839E83AF83B887F10189
:1035D0007484272D30E07614D0F5F10140845184B5
:1035E000C901880F991F840D951D9E878D87DC0169
:1035F0000D911C9169817A818B819C810E94482F59
:103600006B017C0120E030E040E45FE30E94D62FB4
:103610000E941C2F0617170708F461C0ED85FE8570
:103620000081118120E030E040EA5FE3C701B6018C
:103630000E94D62F20E030E040E85FE30E94B82EE1
:103640000E941C2F6017710708F087C048C0C9018D
:10365000019797FDC901959587958150D1011796DE
:103660008C93F10183829482A582B68299249394EB
:10367000E8C081E0870DD1011C968C938201080F70
:10368000111D080F111DF801408051806D817E8150
:103690008F8198850E94482F6B017C0120E030E0EB
:1036A00040E45FE30E94D62F0E941C2F4616570667
:1036B000C0F4D8014D905C9069857A858B859C8596
:1036C0000E94482F6B017C0120E030E040E45FE382
:1036D0000E94D62F0E941C2F4616570618F5912CD3
:1036E000B0C0F8014080518020E030E040EA5FE364
:1036F000C701B6010E94D62F20E030E040E85FE32A
:103700000E94B82E0E941C2F6415750590F2880C3B
:10371000991CAA1CBB1C689480F873947394F101E3
:103720007486EBCED8010D911C9120E030E040EA88
:103730005FE3C701B6010E94D62F20E030E040E8E9
:103740005FE30E94B82E0E941C2F6017710738F2A9
:10375000880C991CAA1CBB1CE0CF81E0870DF101ED
:1037600084878201080F111D080F111DD8014D908B
:103770005C9069857A858B859C850E94482F6B01BA
:103780007C0120E030E040E45FE30E94D62F0E94FD
:103790001C2F4616570610F1D8014D905C9020E082
:1037A00030E040EA5FE3C701B6010E94D62F20E077
:1037B00030E040E85FE30E94B82E0E941C2F6415A1
:1037C000750560F0880C991CAA1CBB1C689480F8D5
:1037D00073947394D1011C967C92F9CEF8014080C9
:1037E00051806D817E818F8198850E94482F6B0169
:1037F0007C0120E030E040E45FE30E94D62F0E948D
:103800001C2F4616570608F46ACFF8010081118173
:1038100020E030E040EA5FE3C701B6010E94D62F06
:1038200020E030E040E85FE30E94B82E0E941C2FA9
:103830006017710708F453CF880C991CAA1CBB1C95
:10384000C7CF892D2E960FB6F894DEBF0FBECDBF21
:10385000DF91CF911F910F91FF90EF90DF90CF906C
:10386000BF90AF909F908F907F906F905F904F90A0
:103870003F902F900895AF92BF92CF92DF92EF9238
:10388000FF920F931F93CF93DF93EC01E881F981AF
:1038900036970190F081E02DE80FF91F8285843082
:1038A00089F5A085B18514968D919C9115978739DE
:1038B000964040F114968D919C9115978E3F9A40B9
:1038C00008F516968D919C911797873A9140D0F004
:1038D00016968D919C911797833C924098F417828D
:1038E000E881F98136970190F081E02DEC0FFD1F02
:1038F0008FEF9FEFDC0183839483A583B68381E000
:10390000828322C084E3A82E82E0B82E9CE9C92ECF
:1039100096E0D92E24E3E22E22E0F22E00E010E021
:1039200020EA31E140E453E264E4CF010E94BD1992
:10393000882351F0E881F98136970190F081E02DDC
:10394000EC0FFD1F91E09283DF91CF911F910F91BA
:10395000FF90EF90DF90CF90BF90AF900895AF921F
:10396000BF92CF92DF92EF92FF920F931F93CF936C
:10397000DF93EC01E881F9813697808191818C0F8A
:103980009D1FFC012285322F377F323131F02032EA
:1039900021F02A3211F080E01FC0A12CB12C38E5B3
:1039A000C32E32E0D32E48E5E42E42E0F42E00EBA5
:1039B00014E028E532E040E659E060E00E94BD19DD
:1039C000882349F3E881F98136970190F081E02D51
:1039D000EC0FFD1F92E09283DF91CF911F910F9129
:1039E000FF90EF90DF90CF90BF90AF900895AF928F
:1039F000BF92CF92DF92EF92FF920F931F93CF93DC
:103A0000DF93EC01E881F98136978081918151E45F
:103A1000A52E53E0B52E63ECC62E69E0D62E71E4D8
:103A2000E72E73E0F72E00E010E024E03DE044E0F4
:103A30005DE060E38C0F9D1F0E94BD19882351F04B
:103A4000E881F98136970190F081E02DEC0FFD1FA0
:103A500095E09283DF91CF911F910F91FF90EF90AE
:103A6000DF90CF90BF90AF900895AF92BF92CF926A
:103A7000DF92EF92FF920F931F93CF93DF93EC01AE
:103A8000E881F981369780819181E4E3AE2EE2E00E
:103A9000BE2EFCE9CF2EF6E0DF2EA4E3EA2EA2E054
:103AA000FA2E00E010E020EA31E140EA51E164E45E
:103AB0008C0F9D1F0E94BD19882351F0E881F98168
:103AC00036970190F081E02DEC0FFD1F97E0928377
:103AD000DF91CF911F910F91FF90EF90DF90CF90EA
:103AE000BF90AF9008959F92AF92BF92CF92DF9216
:103AF000EF92FF920F931F93CF93DF93EC01E88136
:103B0000F981369780819181BDE0AB2EB2E0BB2E6A
:103B100017E2C12E16E0D12E0DE0E02E02E0F02ECD
:103B200000E010E028E630E140ED50E264E28C0F66
:103B30009D1F0E94BD19982E81113BC0E881F9811B
:103B400036970190F081E02DEC0FFD1F82858232C7
:103B500009F04AC020E030E04DE052E060E0CF01E3
:103B60000E94BD19882309F43FC0E881F981369786
:103B70000190F081E02DEC0FFD1FA085B185189616
:103B80008D919C9119978D39944000F118968D91E3
:103B90009C911997823B9740C8F443815481658179
:103BA00076815068438354836583768387818F5FF2
:103BB0008783E881F98136970190F081E02DEC0F41
:103BC000FD1F86E08283992493940EC018968D91F0
:103BD0009C9119978938914038F018968D919C9155
:103BE00019978239924010F3892DDF91CF911F915F
:103BF0000F91FF90EF90DF90CF90BF90AF909F908C
:103C000008952F923F924F925F926F927F928F9280
:103C10009F92AF92BF92CF92DF92EF92FF920F935B
:103C20001F93CF93DF9300D01F92CDB7DEB77C01F7
:103C30005B016A01DC01ED91FC91369700811181F5
:103C4000080F191FF80194848285981608F0BAC0ED
:103C500090858185E92FF82FE90DF11DE90DF11D02
:103C6000208131813B832A83892D809581708983CE
:103C7000812CBA0180E090E00E94482F2B013C018A
:103C800020E030E040E45FE30E94D62F0E941C2F2A
:103C9000AA81BB81A617B707B0F020E030E040EA68
:103CA0005FE3C301B2010E94D62F20E030E040E87C
:103CB0005FE30E94B82E0E941C2FEA81FB816E17E1
:103CC0007F0708F064C01601220C331CB10180E0AC
:103CD00090E00E94482F2B013C0120E030E040E4BE
:103CE0005FE30E94D62F0E941C2F2A813B8126175A
:103CF0003707A8F020E030E040EA5FE3C301B201FB
:103D00000E94D62F20E030E040E85FE30E94B82E0A
:103D10000E941C2FAA81BB816A177B07D0F5B101D5
:103D20006C0D7D1D80E090E00E94482F2B013C012E
:103D300020E030E040E45FE30E94D62F0E941C2F79
:103D4000EA81FB81E617F707A8F020E030E040EABF
:103D50005FE3C301B2010E94D62F20E030E040E8CB
:103D60005FE30E94B82E0E941C2F2A813B816217BC
:103D7000730788F4D8011B968C91882331F1B1E048
:103D80009B1226C0EA81FB81EC15FD0520F591E030
:103D900003C092E001C093E0D5018C918F5F891739
:103DA00010F48C931BC0F5011082D701ED91FC91AA
:103DB00036970190F081E02DEE0DFF1D84858F5F19
:103DC00084870CC0B1E0B98308C0E2E0E98305C094
:103DD000F2E0F98302C022E02983812C8981982DA9
:103DE0000F900F900F90DF91CF911F910F91FF9047
:103DF000EF90DF90CF90BF90AF909F908F907F908B
:103E00006F905F904F903F902F9008950F931F9366
:103E1000CF93DF93EC01E881F98138970190F0812D
:103E2000E02DE80FF91F82858D3008F4B1C081E0E4
:103E30008487E881F98136970190F081E02DEC0FBD
:103E4000FD1F14821582168217821382E881F98180
:103E50003697808191818C0F9D1FBC016D5F7F4FD4
:103E600049E753E00E94011E892B09F091C0E881C7
:103E7000F98136970190F081E02DEC0FFD1F128241
:103E800088819981FC0138970190F081E02DEC0F39
:103E9000FD1F34852285321708F05AC0FC01369781
:103EA000808191818C0F9D1FBC016D5F7F4F49E721
:103EB00053E00E94011E8C01E881F98136978081D0
:103EC00091818C0F9D1FBC016D5F7F4F49E753E0CF
:103ED0000E94011E01301105A9F4892B09F058C078
:103EE000E881F98136970190F081E02DEC0FFD1FFC
:103EF0004481558166817781440F551F661F771F66
:103F0000416016C0012B09F043C0019709F040C081
:103F1000E881F98136970190F081E02DEC0FFD1FCB
:103F20004481558166817781440F551F661F771F35
:103F30004483558366837783E881F98136970190BE
:103F4000F081E02DEC0FFD1F82818F5F828398CF7F
:103F50008DE0878388819981FC0138970190F081F9
:103F6000E02DEC0FFD1FDC0116970D90BC91A02DEC
:103F7000AC0FBD1F14968D919D910D90BC91A02DFD
:103F800083839483A583B68383E0828381E001C029
:103F900080E0DF91CF911F910F910895EF92FF92F2
:103FA0000F931F93CF93DF93EC01E881F98138974A
:103FB0000190F081E02DE80FF91F8285811102C088
:103FC00080E019C18385A085B18581110EC012964C
:103FD0008D919C9113978F3C974090F312968D9101
:103FE0009C91139786309D4058F714968D919C9123
:103FF00015978A39924020F314968D919C911597CC
:1040000089359440E8F683E08487E881F981369722
:104010000190F081E02DEC0FFD1F148215821682B5
:1040200017821382E881F9813697808191818C0F04
:104030009D1FBC016D5F7F4F4CEB51E00E94011E44
:10404000892B09F0BDCFE881F98136978081918174
:104050008C0F9D1FBC016D5F7F4F4CEB51E00E94A8
:10406000011E019709F0ACCFE881F98136970190E4
:10407000F081E02DEC0FFD1F1282A881B981FD01B6
:1040800038970190F081E02DEC0FFD1F948582851B
:104090001697981708F08AC08D919C918C0F9D1FE0
:1040A000BC016D5F7F4F4CEB51E00E94011E8C0103
:1040B000E881F98136970190F081E02DEC0FFD1F2A
:1040C00082818330D9F0E881F981369780819181AE
:1040D0008C0F9D1FBC016D5F7F4F4CEB51E00E9428
:1040E000011E7C01E881F98136970190F081E02D75
:1040F000EC0FFD1F82818330C9F40CC0BF016D5FDE
:104100007F4F4CEB51E0CF010E94011E08171907A9
:10411000D1F256CFBF016D5F7F4F4CEB51E0CF0125
:104120000E94011EE816F90609F04ACF0115110593
:10413000B1F4EA94EF2809F043CFE881F98136978A
:104140000190F081E02DEC0FFD1F448155816681C7
:104150007781440F551F661F771F416017C00130DC
:10416000110509F02DCFEF2809F02ACFE881F98158
:1041700036970190F081E02DEC0FFD1F44815581B1
:1041800066817781440F551F661F771F44835583CF
:1041900066837783E881F98136970190F081E02D7D
:1041A000EC0FFD1F82818F5F828367CF0D90BC91E2
:1041B000A02DAC0FBD1F12968C91878388819981A9
:1041C000FC0138970190F081E02DEC0FFD1FDC0120
:1041D00016970D90BC91A02DAC0FBD1F14968D911C
:1041E0009D910D90BC91A02D83839483A583B6836C
:1041F00084E0828381E0DF91CF911F910F91FF9046
:10420000EF900895CF93DF93EC01E881F9813A971D
:10421000808191818C0F9D1F0E943B1C811142C0A7
:10422000E881F9813C97808191818C0F9D1F0E94CC
:10423000AF1C811137C0E881F9813E97808191815F
:104240008C0F9D1F0E94061F81112CC0E881F981EF
:104250007297808191818C0F9D1F0E94CE1F8111CA
:1042600021C0E881F9817497808191818C0F9D1F15
:104270000E94F71C811116C0E881F981789780812E
:1042800091818C0F9D1F0E94351D81110BC0E8810B
:10429000F9817697808191818C0F9D1FDF91CF915D
:1042A0000C94731D81E0DF91CF91089529E836E0E9
:1042B000FC0131832083609323071092260724E6B4
:1042C00022830895EF92FF920F931F93CF93DF9372
:1042D0008C01EB017A01E881F9810190F081E02DF8
:1042E000CB0109958091F3078A8740E08091F3071D
:1042F000481720F5A42FB0E0CD01880F991FE8855D
:10430000F985E80FF91FDC01A55DB84F2D913C91AF
:104310002E9DC0012F9D900D3E9D900D1124D80122
:1043200012962C9130E040FF03C031952195310960
:10433000280F391F318320834F5FD8CF81E0DF9171
:10434000CF911F910F91FF90EF90089580912607D4
:10435000882339F08091F30780FF02C02D9A0895D9
:104360002D98089520912407309125072430310598
:1043700031F442E350E00E94622181E0089580E040
:1043800008951F920F920FB60F9211242F933F930F
:104390004F935F936F937F938F939F93AF93BF934D
:1043A000EF93FF93809123070E947A25409127077E
:1043B000509128076091290770912A074F5F5F4F3E
:1043C0006F4F7F4F4093270750932807609329072B
:1043D00070932A072091F307243630F024E030E070
:1043E0003093250720932407209124073091250737
:1043F0002230310509F124F42130310549F07FC024
:1044000023303105E1F12430310509F46EC077C065
:10441000892B09F074C08091270790912807A091FB
:104420002907B0912A0784369105A105B10508F442
:104430005EC01092F30725C0019709F060C0E091BB
:10444000F30781E08E0F8093F307F0E08091270758
:1044500090912807A0912907B0912A07EE0FFF1F1E
:10446000E55DF84F9183808310922707109228070B
:104470001092290710922A0783E090E031C0892B1F
:1044800001F5E091F30781E08E0F8093F307F0E0F0
:104490008091270790912807A0912907B0912A07BA
:1044A000EE0FFF1FE55DF84F918380831092270781
:1044B000109228071092290710922A0782E090E0B4
:1044C0000FC08091270790912807A0912907B091EC
:1044D0002A0785369105A105B10588F084E090E0B2
:1044E00090932507809324070AC0892B41F41092EA
:1044F0002707109228071092290710922A070E9476
:10450000A621FF91EF91BF91AF919F918F917F91E4
:104510006F915F914F913F912F910F900FBE0F9030
:104520001F901895DC01ED91FC9138972081318125
:10453000820F931F0C943B1CDC01ED91FC9138978A
:1045400020813181820F931F0C94AF1CDC01ED910F
:10455000FC91389720813181820F931F0C94F71CB6
:10456000DC01ED91FC91389720813181820F931FFE
:104570000C94351DDC01ED91FC913897208131813F
:10458000820F931F0C94731DDC01ED91FC91389701
:1045900020813181820F931F0C94061FDC01ED9165
:1045A000FC91389720813181820F931F0C94CE1F8C
:1045B000DC01ED91FC91389720813181820F931FAE
:1045C0000C940221DC01ED91FC913A97208131811C
:1045D000820F931F0C9402211F920F920FB60F921D
:1045E00011242F933F934F935F936F937F938F93F8
:1045F0009F93AF93BF93EF93FF938091F4079091B4
:10460000F507892B29F0E091F407F091F50709955A
:10461000FF91EF91BF91AF919F918F917F916F919A
:104620005F914F913F912F910F900FBE0F901F9070
:1046300018951F920F920FB60F9211242F933F934C
:104640004F935F936F937F938F939F93AF93BF939A
:10465000EF93FF938091F6079091F707892B29F04C
:10466000E091F607F091F7070995FF91EF91BF915F
:10467000AF919F918F917F916F915F914F913F91FA
:104680002F910F900FBE0F901F9018951F920F92B1
:104690000FB60F9211242F933F934F935F936F9315
:1046A0007F938F939F93AF93BF93EF93FF938091EB
:1046B000F8079091F907892B29F0E091F807F0911C
:1046C000F9070995FF91EF91BF91AF919F918F915C
:1046D0007F916F915F914F913F912F910F900FBEFE
:1046E0000F901F9018951F920F920FB60F921124E2
:1046F0002F933F934F935F936F937F938F939F93EA
:10470000AF93BF93EF93FF938091FA079091FB07CC
:10471000892B29F0E091FA07F091FB070995FF91A9
:10472000EF91BF91AF919F918F917F916F915F9129
:104730004F913F912F910F900FBE0F901F901895A2
:104740001F920F920FB60F9211242F933F934F9306
:104750005F936F937F938F939F93AF93BF93EF93E9
:10476000FF938091FC079091FD07892B29F0E09140
:10477000FC07F091FD070995FF91EF91BF91AF9173
:104780009F918F917F916F915F914F913F912F9169
:104790000F900FBE0F901F9018951F920F920FB69B
:1047A0000F9211242F933F938F939F93AF93BF93B7
:1047B0008091FF0790910008A0910108B091020834
:1047C0003091FE0723E0230F2D3720F40196A11D21
:1047D000B11D05C026E8230F0296A11DB11D20932F
:1047E000FE078093FF0790930008A0930108B09301
:1047F00002088091030890910408A0910508B091E7
:1048000006080196A11DB11D80930308909304082A
:10481000A0930508B0930608BF91AF919F918F9127
:104820003F912F910F900FBE0F901F9018952FB7AB
:10483000F8946091FF0770910008809101089091B1
:1048400002082FBF08953FB7F89480910308909114
:104850000408A0910508B091060826B5A89B05C0DC
:104860002F3F19F00196A11DB11D3FBF6627782F7C
:10487000892F9A2F620F711D811D911D42E0660FD5
:10488000771F881F991F4A95D1F70895CF92DF921D
:10489000EF92FF92CF93DF936B017C010E94232460
:1048A000EB01C114D104E104F10489F00E94732DDD
:1048B0000E9423246C1B7D0B683E734090F381E0C3
:1048C000C81AD108E108F108C851DC4FEACFDF91DE
:1048D000CF91FF90EF90DF90CF900895019739F03E
:1048E000880F991F880F991F02970197F1F7089574
:1048F000789484B5826084BD84B5816084BD85B5BB
:10490000826085BD85B5816085BDEEE6F0E0808181
:1049100081608083E1E8F0E01082808182608083A2
:10492000808181608083E0E8F0E080818160808325
:10493000E1E9F0E080818260808380818160808312
:10494000E0E9F0E0808181608083E1ECF0E080814B
:1049500084608083808182608083808181608083A5
:10496000E3ECF0E0808181608083E0ECF0E0808126
:1049700082608083E2ECF0E0808181608083EAE7FE
:10498000F0E0808184608083808182608083808188
:1049900081608083808180688083089590E0FC013D
:1049A0003197EF30F105B0F5EA5AFF4F0C94B23071
:1049B000809180008F7703C0809180008F7D8093ED
:1049C0008000089580918000877FF9CF84B58F772C
:1049D00002C084B58F7D84BD0895809190008F774B
:1049E00007C0809190008F7D03C080919000877FE9
:1049F0008093900008958091C0008F7703C08091CC
:104A0000C0008F7D8093C00008958091C200877F91
:104A10008093C2000895CF93DF9390E0FC01EB5B9D
:104A2000F64F2491FC01ED59F64F8491882349F10A
:104A300090E0880F991FFC01E356F64FA591B491C1
:104A40008157964FFC01C591D4919FB7611108C061
:104A5000F8948C91209582238C93888182230AC0BC
:104A6000623051F4F8948C91322F309583238C93DB
:104A70008881822B888304C0F8948C91822B8C933C
:104A80009FBFDF91CF9108950F931F93CF93DF9333
:104A90001F92CDB7DEB7282F30E0F901E95DF64F60
:104AA0008491F901EB5BF64F1491F901ED59F64F42
:104AB00004910023C9F0882321F069830E94CE2449
:104AC0006981E02FF0E0EE0FFF1FE157F64FA5914F
:104AD000B4919FB7F8948C91611103C01095812314
:104AE00001C0812B8C939FBF0F90DF91CF911F91BD
:104AF0000F910895CF93DF93282F30E0F901E95DFE
:104B0000F64F8491F901EB5BF64FD491F901ED5921
:104B1000F64FC491CC2391F081110E94CE24EC2F4A
:104B2000F0E0EE0FFF1FEF57F64FA591B4912C91D7
:104B30002D2381E090E021F480E002C080E090E04D
:104B4000DF91CF910895CF93DF931F92CDB7DEB75A
:104B50006983DC01ED91FC910280F381E02D41E05D
:104B600050E0BE016F5F7F4F09950F90DF91CF91AD
:104B70000895CF93DF93EC018C859D8597FF05C049
:104B800082E00E94582A9D878C878C859D85DF91C5
:104B9000CF91089583E00C94AD2CFC01848595851C
:104BA00097FD06C082E00E94002A90E001960895D9
:104BB00082E00E94002A90E00895FC01848595859A
:104BC00097FD05C02FEF3FEF35872487089582E0DA
:104BD0000C94582ACF93DF93EC0180911A0188231B
:104BE00031F083E00E94892A1816190634F081E01A
:104BF00090E09B838A8380E090E0DF91CF910895DD
:104C0000FC0120812E5F208342E450E06BEA79E0D2
:104C100080E80C94242BFC0181819081913A59F415
:104C2000813209F03CC047E050E063E171E080E090
:104C30000E94242B43C0913291F5803239F467E011
:104C400070E083E191E00E94552B06C0823209F0AA
:104C500035C0828180931A018091130190911401D3
:104C6000A0911501B0911601803B9440A105B105BA
:104C7000C1F480911A0180FD14C087E797E79093F3
:104C80000108809300082BE088E190E00FB6F894CB
:104C9000A895809360000FBE209360000FC080E055
:104CA000089588E10FB6F894809360001092600038
:104CB0000FBEA895109201081092000881E0089597
:104CC0002FEF3FEFFC01358724870895CF93C091E4
:104CD0001A016AE070E080E090E00E94462481E0E2
:104CE000C11101C080E0CF91089510920A0810927E
:104CF000090888EE93E0A0E0B0E080930B08909361
:104D00000C08A0930D08B0930E0885E996E09093E7
:104D10000808809307088FEF9FEF90931408809303
:104D20001308089508950E9478240E94922687E52A
:104D300098E00E940D2D0E94660BC0E0D0E00E941A
:104D400018132097E1F30E940000F9CFCF92DF9271
:104D5000EF92FF920F931F93CF93DF936C017A0131
:104D6000EB01E60EF71E00E010E0CE15DF0561F066
:104D70006991D601ED91FC910190F081E02DC60181
:104D80000995080F191FF1CFC801DF91CF911F912D
:104D90000F91FF90EF90DF90CF900895EF92FF92E8
:104DA0000F931F93CF93DF938C01FB01C0E0D0E002
:104DB00064917F018FEFE81AF80A662361F0D80149
:104DC000ED91FC910190F081E02DC8010995C80F8B
:104DD000D91FF701EDCFCE01DF91CF911F910F9138
:104DE000FF90EF9008950C94CB05DC01ED91FC91C0
:104DF0000190F081E02D09940F931F93CF93DF93DF
:104E0000EC016DE00E94F5268C016AE0CE010E9463
:104E1000F526800F911FDF91CF911F910F9108957B
:104E20000F931F93CF93DF93EC010E94CE268C014A
:104E3000CE010E94FC26800F911FDF91CF911F9120
:104E40000F9108950F931F93CF93DF93EC010E946E
:104E5000CB058C01CE010E94FC26800F911FDF91B3
:104E6000CF911F910F9108950F931F93CF93DF93CD
:104E7000EC010E94F5268C01CE010E94FC26800FD9
:104E8000911FDF91CF911F910F9108958F929F9263
:104E9000AF92BF92CF92DF92EF92FF920F931F9348
:104EA000CF93DF93CDB7DEB7A1970FB6F894DEBFEF
:104EB0000FBECDBF7C01C42EE52FCB01D22E19A28F
:104EC00021E02D1510F02AE0D22E8E010F5D1F4F2C
:104ED0008D2C912CA12CB12C6C2D7E2FA501940131
:104EE0000E9471308C2DD29E80191124015011091D
:104EF0008A3014F4805D01C0895CF801808321153B
:104F000031054105510521F0C22EE32FCA01E4CF3E
:104F1000B801C7010E94CB05A1960FB6F894DEBF79
:104F20000FBECDBFDF91CF911F910F91FF90EF90FA
:104F3000DF90CF90BF90AF909F908F900895CF92C9
:104F4000DF92EF92FF920F931F93CF93DF93EC01C9
:104F50006A017B012115310579F4E881F98101901D
:104F6000F081E02D642FDF91CF911F910F91FF9081
:104F7000EF90DF90CF9009942A303105E9F477FF64
:104F80001AC06DE20E94F5268C0144275527BA010C
:104F90004C195D096E097F092AE0CE010E9446275F
:104FA000800F911FDF91CF911F910F91FF90EF9094
:104FB000DF90CF9008952AE0B701A601CE01DF91DE
:104FC000CF911F910F91FF90EF90DF90CF900C94B5
:104FD00046279A01AB01662757FD6095762F0C9402
:104FE0009F270F931F93CF93DF93EC019A01AB019F
:104FF000662757FD6095762F0E949F278C01CE0172
:105000000E94FC26800F911FDF91CF911F910F917D
:1050100008952115310541F4DC01ED91FC910190D9
:10502000F081E02D642F09940C9446279A01462FB5
:1050300050E060E070E00C9409280F931F93CF9329
:10504000DF93EC019A01462F50E060E070E00E948F
:1050500009288C01CE010E94FC26800F911FDF9150
:10506000CF911F910F9108959A01AB0160E070E01C
:105070000C9409280F931F93CF93DF93EC019A01AF
:10508000AB0160E070E00E9409288C01CE010E9413
:10509000FC26800F911FDF91CF911F910F910895F2
:1050A0000F931F93CF93DF93EC010E9409288C018B
:1050B000CE010E94FC26800F911FDF91CF911F919E
:1050C0000F9108950F931F93CF93DF93EC010E94EC
:1050D0001724688779878A879B87E881F98106800A
:1050E000F781E02DCE01099597FF15C00E94172486
:1050F000088519852A853B85601B710B820B930BF4
:105100000C811D812E813F816017710782079307F3
:1051100020F38FEF9FEFDF91CF911F910F910895B3
:105120000F931F93CF93DF93EC010E94172468879E
:1051300079878A879B87E881F9810084F185E02D52
:10514000CE01099597FF15C00E941724088519857F
:105150002A853B85601B710B820B930B0C811D8193
:105160002E813F81601771078207930720F38FEF2D
:105170009FEFDF91CF911F910F910895CF93DF9310
:10518000EC01CE010E94902897FD11C08D3291054F
:1051900071F09C01205331092A30310540F0E8813B
:1051A000F9810680F781E02DCE010995EACFDF91E4
:1051B000CF910895FC0144835583668377830895D6
:1051C000CF92DF92FF920F931F93CF93DF9300D084
:1051D00000D0CDB7DEB76C01062F0E94BE28FC01BF
:1051E00097FD4BC020E030E0A901F12C112707FD0D
:1051F0001095E017F107E9F0ED32F105C1F0CF01AC
:10520000C0970A97B0F4AAE0B0E00E94BF309B01BB
:10521000AC01CF01AA2797FDA095BA2F280F391FFF
:105220004A1F5B1F205331094109510902C0FF2465
:10523000F394D601ED91FC910680F781E02DC60133
:1052400029833A834B835C830995C6010E94902889
:10525000FC01C09729813A814B815C810A9748F211
:10526000E017F10731F2FF2061F066277727CB01C5
:10527000621B730B840B950B06C060E070E0CB01E2
:1052800002C0CA01B9010F900F900F900F90DF91EB
:10529000CF911F910F91FF90DF90CF90089561E023
:1052A0000C94E028AF92BF92CF92DF92EF92FF92E0
:1052B0000F931F93CF93DF936C0179012115310573
:1052C000B9F08A01C0E0D0E0A62EBB24A7FCB094C0
:1052D000C6010E94622897FD0EC08A159B0559F0F1
:1052E000F80181938F012196CE15DF0589F703C060
:1052F00080E090E001C0CE01DF91CF911F910F912E
:10530000FF90EF90DF90CF90BF90AF9008954091C5
:105310005B0850915C082091590830915A08421757
:105320005307B4F49091E8009570E1F39091E80090
:1053300092FD19C08093F10080915B0890915C0808
:1053400001968F739927892B19F48EEF8093E800CB
:1053500080915B0890915C08019690935C08809323
:105360005B0881E0089580E00895CF92DF92FF927C
:105370000F931F93CF93DF931F92CDB7DEB7082F04
:10538000162F862F880F8E5F99830E94872983E0CE
:105390000E948729F02EC02E9981D92E8C2D8F192D
:1053A000811778F4F60184910E948729082F80E004
:1053B0000E9487298023FFEFCF1ADF0A8111EECFE9
:1053C00001C081E00F90DF91CF911F910F91FF906D
:1053D000DF90CF900895615030F02091F100FC01F2
:1053E00020830196F8CF289884E680935E0808957C
:1053F0002FB7FC012083F89467706093E90008954B
:10540000CF93DF931F92CDB7DEB7682FCE01019601
:105410000E94F8298091F20099819FBF0F90DF913F
:10542000CF910895FF920F931F93CF93DF9300D0F6
:10543000CDB7DEB7F62E8A0190915D08992311F061
:1054400057FF03C08FEF9FEF2BC0682FCE0101964F
:105450007A830E94F8298091F20090E0A8017A8175
:10546000801791070CF4AC01EF2DF72FF40E84E6B2
:10547000FE1639F0289880935E089091F100919380
:10548000F7CF4115510521F08091F200882321F0DA
:1054900089818FBFCA0104C08BE68093E800F8CFF2
:1054A0000F900F90DF91CF911F910F91FF90089572
:1054B000CF93DF931F92CDB7DEB741E050E0BE013E
:1054C0006F5F7F4F0E94122A019719F4898190E043
:1054D00002C08FEF9FEF0F90DF91CF910895CF9390
:1054E000DF931F92CDB7DEB7682FCE0101960E94E1
:1054F000F8299091E800892F807295FF04C090915F
:10550000F20080E4891B99819FBF0F90DF91CF91BA
:1055100008956F927F928F929F92AF92BF92CF9297
:10552000DF92EF92FF920F931F93CF93DF931F921F
:10553000CDB7DEB7782E7B01C42EB52E80915D08E5
:10554000882369F0042F152F8AEFD82E872D8072BB
:10555000982E9AE3A92E872D8074882E11C08FEF84
:105560009FEF57C0872D0E946F2A682E81110CC0B3
:10557000DA94A9F361E070E080E090E00E944624B4
:105580000115110579F73BC0282F30E002171307EA
:105590000CF4602E672DCE0101960E94F8298091AF
:1055A000E80085FF29C0262D30E0021B130B99204F
:1055B00039F06A948FEF6816B1F01092F100F9CFCC
:1055C000F701862D77FE07C0815058F09491909393
:1055D000F1003196F9CF815020F091919093F10034
:1055E000FACFE20EF31E8091E80085FF0FC001158F
:1055F000110511F481100AC089818FBFC1CF5D9858
:1056000084E680935F088C2D9B2D03C0A092E80058
:10561000F3CF0F90DF91CF911F910F91FF90EF90FB
:10562000DF90CF90BF90AF909F908F907F906F90C2
:1056300008951092E90010925C0810925B08909314
:105640005A08809359080895CF92DF92FF920F93E2
:105650001F93CF93DF9300D0CDB7DEB7F82E8A012A
:105660006B0101151105B1F0F601F7FE02C084913E
:1056700001C0808149835A830E9487290150110902
:10568000FFEFCF1ADF0A49815A818111EACF8FEFEC
:105690009FEF01C0CA010F900F90DF91CF911F9132
:1056A0000F91FF90DF90CF9008951F93CF93DF93DA
:1056B0001F92CDB7DEB7162F2091E80022FFFCCF56
:1056C000612F79830E94EB298BEF8093E800812F73
:1056D0007981972F0F90DF91CF911F910895CF93EC
:1056E000DF931F92CDB7DEB71982CE0101960E94DB
:1056F0000026CE0101960E94922D898190E00F90A4
:10570000DF91CF9108951F920F920FB60F9211243F
:10571000EF92FF920F931F932F933F934F935F93BB
:105720006F937F938F939F93AF93BF93EF93FF9369
:10573000CF93DF93CDB7DEB76297DEBFCDBF1092B8
:10574000E9008091E80083FFEBC068E0CE010A9693
:105750000E94EB2982EF8093E8009A8597FF05C0AD
:105760008091E80080FFFCCF03C08EEF8093E800BB
:10577000892F807609F0B9C08B85811105C0109200
:10578000F1001092F100C5C0282F2D7F213009F4BF
:10579000C0C0853049F48091E80080FFFCCF8C8543
:1057A00080688093E300B5C0863009F076C02D850F
:1057B000E888F988223071F580E090E02A8B0E9419
:1057C000192B0E946F2B99E08E010F5F1F4FF8017C
:1057D000392F11923A95E9F799832A892A8391E022
:1057E0009E8390E898879AEF998720915B08309183
:1057F0005C08275F3F4F3C832B838D83C7010E944A
:10580000192B49E050E0B80180E00E94242B0E944F
:105810006F2B7FC0C7012A8B0E94192B2A89223245
:1058200041F482E290E00E949D2D892B09F071C025
:1058300074C0213069F488899989089711F42093FC
:10584000580880915808811118C064E07AE01AC0A5
:10585000233009F062C08C85882391F0823021F4D6
:1058600060E182E29AE006C0813009F056C06BE048
:1058700086E19AE00E94B5294AC062EF79E002C051
:1058800063E37AE06115710509F447C0FB014491B7
:1058900050E080E80E94242B3CC0873009F43DC0D2
:1058A000883021F481E08093F10033C0893089F59C
:1058B000937099F5EEEEF9E081E021E096E38093B4
:1058C000E9002093EB0034913093EC009093ED00CD
:1058D0008F5F3196853099F78EE78093EA001092BA
:1058E000EA008C8580935D0814C0888999890E949C
:1058F000192B8E85811105C0CE010A960E940B26B8
:1059000006C0823051F4CE010A960E94C52D88232C
:1059100021F08EEF8093E80003C081E28093EB00DA
:1059200062960FB6F894DEBF0FBECDBFDF91CF9168
:10593000FF91EF91BF91AF919F918F917F916F9167
:105940005F914F913F912F911F910F91FF90EF9099
:105950000F900FBE0F901F9018958093E9008091D3
:10596000F200882319F08AE38093E80008951F92DB
:105970000F920FB60F9211242F933F934F935F9383
:105980006F937F938F939F93AF93BF93EF93FF9307
:105990008091E1001092E10083FF0FC01092E900B6
:1059A00091E09093EB001092EC0092E39093ED0065
:1059B00010925D0898E09093F00082FF1DC083E094
:1059C0000E94AD2C80915F08882339F080915F0898
:1059D000815080935F08882369F080915E08882356
:1059E00059F080915E08815080935E08811104C057
:1059F000289A02C05D9AF1CFFF91EF91BF91AF91CC
:105A00009F918F917F916F915F914F913F912F91D6
:105A10000F900FBE0F901F90189510925D0881E0B7
:105A20008093D70080EA8093D80082E189BD09B4D1
:105A300000FEFDCF61E070E080E090E00E9446242F
:105A400080E98093D8008CE08093E2001092E0001F
:105A5000559A209A0895009729F0BC0180E090E0C3
:105A60000C942D310895CF93DF9300D000D0CDB7A3
:105A7000DEB79B01AC01611571058105910569F0E7
:105A800069833A834B835C830E94283129813A8160
:105A90004B815C810E94933003C060E070E0CB01D9
:105AA0000F900F900F900F90DF91CF910895CF92AC
:105AB000DF92EF92FF926B017C01621773078407FC
:105AC000950764F4CA01B9016C197D098E099F0913
:105AD0000E94332D6C0D7D1D8E1D9F1DFF90EF903C
