:100000000C94CE050C940D230C943A230C94672386
:100010000C9494230C94F6050C94F6050C94C123CF
:100020000C94F6050C94F6050C94CE2C0C949A2B9B
:100030000C94F9220C94F6050C94F6050C94F60534
:100040000C94F6050C94FA200C94F6050C94F60525
:100050000C94F6050C94F6050C94F6050C94EE231E
:100060000C94F6050C94F6050C94F6050C94F60524
:100070000C94F6050C94F6050C94F6050C94F60514
:100080000C94F6050C94F6050C94F6050C94F60504
:100090000C94F6050C94F6050C94F6050C94F605F4
:1000A0000C94F6050C94F6050C94F605FD24002539
:1000B000EF24F324F92421252125212504250825D1
:1000C0000C251225162521251C2509090909092DAC
:1000D0003D5B53797374656D20496E666F5D3D2D90
:1000E0000D0A09536F66747761726520496E7374E7
:1000F000616C6C656409094861726477617265209E
:100100004D6F64657309094261635B4B5D0D0A09BC
:10011000415652204F5309095352414D090943504A
:10012000553A20204D656761333275340D0A095008
:100130006978656C4472697665095352414D0909C5
:10014000436C6F636B3A2031364D687A0D0A094D66
:10015000657367426C6F636B095352414D0D0A0919
:10016000495220536861726B095352414D0D0A097F
:10017000454550524F4D616E6970095352414D0DC6
:100180000A005F5F5F5F5F5F5F5F5F20202020206E
:1001900020202020205F5F5F5F5F5F5F205F5F5FE9
:1001A0005F5F5F5F5F5F205F5F5F5F5F5F5F20201C
:1001B0005F5F5F5F5F5F5F20205F20202020202047
:1001C000202020205F5F5F5F5F5F5F202020202076
:1001D000202020202020205F5F5F5F5F5F200A0DCE
:1001E0005C5F5F2020205F5F2F7C205C2020202030
:1001F000202F7C28205F5F5F2020205C5F5F202015
:10020000205F5F2F2820205F5F5F5F205C28202019
:100210005F5F5F202029282028202020202F7C209D
:10022000202820205F5F202020297C5C20202020A7
:10023000202F7C202F205F5F5F5F205C0A0D202035
:10024000202920282020207C202920202028207CD4
:100250007C202820202029207C20202029202820C4
:1002600020207C2028202020205C2F7C202820207B
:100270002029207C7C20205C202028207C20207CC1
:10028000202820202920207C28205C2020202F20AE
:1002900029282028202020205C2F0A0D2020207CC7
:1002A000207C2020207C20285F5F5F29207C7C2010
:1002B0007C2020207C207C2020207C207C20202072
:1002C0007C207C2020202020207C207C2020207C62
:1002D000207C7C2020205C207C207C20207C207CBA
:1002E000202F2020207C205C20285F29202F207CAC
:1002F00020285F5F5F5F20200A0D2020207C207C6B
:100300002020207C20205F5F5F20207C7C207C20C0
:1003100020207C207C2020207C207C2020207C2011
:100320007C2020202020207C207C2020207C207C01
:100330007C20285C205C29207C20207C20282F2009
:100340002F29207C202029205F202820207C20208D
:100350005F5F5F205C200A0D2020207C207C202015
:10036000207C202820202029207C7C207C2020200C
:100370007C207C2020207C207C2020207C207C2055
:1003800020202020207C207C2020207C207C7C20A1
:100390007C205C2020207C20207C2020202F207CA2
:1003A000207C202F20282029205C207C2028202031
:1003B000202920290A0D2020207C207C2020207C40
:1003C000202920202028207C7C20285F5F5F292096
:1003D0007C2020207C207C2020207C20285F5F5FE8
:1003E0005F2D2D7C20285F5F5F29207C7C202920C9
:1003F000205C20207C20207C2020285F5F29207C1E
:1004000028202F2020205C20292820285F5F5F29BA
:1004100020290A0D202020295F282020207C2F2041
:10042000202020205C7C285F5F5F5F5F5F5F29206A
:100430002020295F28202020285F5F5F5F5F5F5FAB
:100440002F285F5F5F5F5F5F5F297C2F2020202068
:10045000295F292020285F5F5F5F5F5F5F297C2F16
:1004600020202020205C7C205C5F5F5F5F5F2F206E
:100470000A0D2020202020202020202020202020A5
:10048000202020202020202020202020202020206C
:10049000202020202020202020202020202020205C
:1004A000202020202020202020202020202020204C
:1004B000202020202020202020202020202020203C
:1004C00020202020202020202020202020200A0D55
:1004D0002020202020202020202020202020205FDD
:1004E0005F5F5F5F5F2020205F5F5F5F5F5F5F2018
:1004F000205F5F5F5F5F5F2020205F5F5F5F5F5F08
:100500005F20205F5F5F5F5F5F5F202020205F5F75
:100510005F5F5F5F2020205F5F5F5F5F5F5F202026
:100520002020202020202020202020200A0D2020F4
:100530002020202020202020202020202820205F74
:100540005F5F205C202820205F5F5F20202928201B
:10055000205F5F20205C202820205F5F5F5F205CA1
:100560002820205F5F5F5F205C20202820205F5FC5
:100570005F205C202820205F5F5F5F205C202020C0
:10058000202020202020202020200A0D2020202094
:10059000205F5F5F20205F5F5F207C20282020207D
:1005A0002920297C202820202029207C7C2028200C
:1005B000205C2020297C2028202020205C2F7C20EB
:1005C00028202020205C2F20207C2028202020296B
:1005D00020297C2028202020205C2F205F5F5F20A6
:1005E000205F5F5F202020200A0D20202020285F30
:1005F0005F5F29285F5F5F297C20285F5F2F202FA6
:10060000207C20285F5F5F29207C7C207C202020AC
:1006100029207C7C207C2020202020207C20285F1A
:100620005F2020202020207C20285F5F2F202F208B
:100630007C20285F5F5F5F5F20285F5F5F29285F06
:100640005F5F292020200A0D20202020205F5F5F8F
:1006500020205F5F5F207C20205F5F202820207C9F
:1006600020205F5F5F20207C7C207C2020207C205D
:100670007C7C207C205F5F5F5F207C20205F5F2987
:1006800020202020207C20205F5F20282020285F41
:100690005F5F5F5F202029205F5F5F20205F5F5FDB
:1006A000202020200A0D20202020285F5F5F29289D
:1006B0005F5F5F297C202820205C205C207C202834
:1006C00020202029207C7C207C20202029207C7C4C
:1006D000207C205C5F2020297C20282020202020D6
:1006E0002020207C202820205C205C20202020202E
:1006F000202029207C285F5F5F29285F5F5F2920F9
:1007000020200A0D20202020202020202020202012
:1007100020207C20295F5F5F2920297C2029202040
:100720002028207C7C20285F5F2F2020297C202807
:100730005F5F5F29207C7C20285F5F5F5F2D2D201D
:10074000207C20295F5F5F2920292F5C5F5F5F5F2E
:1007500029207C2020202020202020202020202034
:100760000A0D2020202020202020202020202020B2
:100770007C2F205C5F5F5F2F207C2F20202020209B
:100780005C7C285F5F5F5F5F5F2F20285F5F5F5F3C
:100790005F5F5F29285F5F5F5F5F5F5F2F20207C67
:1007A0002F205C5F5F5F2F205C5F5F5F5F5F5F5F3D
:1007B00029202020202020202020202020200A0D59
:1007C00000496E76616C69642063686F69636521B6
:1007D00000547970652061206C65747465722066C0
:1007E0006F7220796F75206D656E752063686F6913
:1007F00063653A205B4C494D432A5D004573636154
:10080000706520697320696D706F737369626C65C0
:1008100000496E76616C696420456E7472792100BE
:10082000557365205B435D20746F20736574206190
:1008300020636F6C6F722076616C7565005573650F
:10084000205B505D20746F2073656C65637420615C
:1008500020706978656C21000D0A53657474696EA7
:1008600067206272696768746E657373206C657661
:10087000656C2000456E7465722042726967687409
:100880006E657373205B31202D203132385D3A2044
:1008900000507265737320616E79206B65792074E6
:1008A0006F2073746F7265207369676E616C2000CE
:1008B00020536861726B73207377696D2062657372
:1008C0007420696E2071756965742077617665732F
:1008D0003A200009206D61783A0053706163652009
:1008E0006D696E3A0009206D61783A004D61726B56
:1008F00020206D696E3A00457874656E743D00097C
:10090000200009002073003A6D0020207300202091
:10091000486561643A206D00293A204761703A00C9
:100920005261772073616D706C6573280020626975
:1009300074732900202800293A2056616C75653AA5
:100940000028004465636F64656420004861736833
:1009500020436F6465004E454378004A564300507B
:10096000616E61736F6E6963204F6C640052433631
:100970000052433500536F6E79004E454300556E6B
:100980006B6E6F776E000000000200090F0000031D
:100990000401000C00000000000000000000000046
:1009A0000000000004080201104080401020408038
:1009B00040800802040180402010020110801020B5
:1009C0004040040404040403040502020202040378
:1009D00002020202060606060606040402020204D9
:1009E000000000002300260029002C002F0000003A
:1009F0000000250028002B002E0031000000000020
:100A0000240027002A002D003000080B00020202FB
:100A10000100090400000102020000052400100189
:100A2000052401010104240206052406000107052E
:100A3000810310004009040100020A0000000705BC
:100A400002024000000705830240000000C18081CF
:100A5000C112010002020000404123368000010162
:100A60000200011201000200000040412336800014
:100A7000010102000141726475696E6F204C4C43A4
:100A80000041726475696E6F204C656F6E617264AF
:100A90006F000403090400000000000000002A2B7E
:100AA000280000000000000000000000000000001E
:100AB0000000000000002C9EB4A0A1A2A434A6A7B0
:100AC000A5AE362D3738271E1F20212223242526A8
:100AD000B333B62EB7B89F8485868788898A8B8C76
:100AE0008D8E8F909192939495969798999A9B9CBE
:100AF0009D2F3130A3AD350405060708090A0B0CFC
:100B00000D0E0F101112131415161718191A1B1C9D
:100B10001DAFB1B0B50009040200010300000009D7
:100B20002101010001226500070584034000010541
:100B3000010902A1010901A1008501050919012985
:100B40000315002501950375018102950175058145
:100B50000305010930093109381581257F7508958C
:100B6000038106C0C005010906A101850205071918
:100B7000E029E715002501750195088102950175A9
:100B800008810395067508150025650507190029D4
:100B9000658100C05C0FFC168C26C12E11241FBE7F
:100BA000CFEFDAE0DEBFCDBF16E0A0E0B1E0E2E2D9
:100BB000F4E602C005900D92AE30B107D9F727E0F8
:100BC000AEE0B6E001C01D92AC3CB207E1F71BE01D
:100BD000CCE9DBE004C02297FE010E94CB30C4398F
:100BE000D107C9F70E94AA260C940F320C9400007A
:100BF000549A08956115710581F0DB010D90002074
:100C0000E9F7AD0141505109461B570BDC01ED914D
:100C1000FC910280F381E02D099480E090E008953A
:100C2000FC0160810C942F16CF93DF93EC010296A8
:100C30000E94E418ECE3F5E0A489B58916970D90BD
:100C4000BC91A02DAC0FBD1F868997898D939C9375
:100C5000A08DB18D16970D90BC91A02DAC0FBD1F2E
:100C6000828D938D50969C938E931F97A2A1B3A1D2
:100C700016970D90BC91A02DAC0FBD1F84A195A11E
:100C800054969C938E935397CE014196248D358D27
:100C9000D90116970D90BC91A02DA80FB91F468DB4
:100CA000578D4D935C93D90118970D90BC91A02D51
:100CB000A80FB91F80A191A18D939C93CE014B9653
:100CC00026A137A1D90116970D90BC91A02DA80F90
:100CD000B91F40A551A54D935C93D90118970D906C
:100CE000BC91A02DA80FB91F82A593A58D939C93AD
:100CF000A4A5B5A516970D90BC91A02DAC0FBD1F56
:100D000086A597A55E969C938E935D97A0A9B1A9A1
:100D100016970D90BC91A02DAC0FBD1F82A993A971
:100D200090969C938E935F97A4A9B5A916970D9062
:100D3000BC91A02DAC0FBD1F86A997A992969C933C
:100D40008E9391978CE895E09983888388E995E064
:100D50009B838A8386EA95E0988B8F8782EB95E068
:100D60009A8B898B8AEB95E09C8B8B8B84EC95E03E
:100D70009C8F8B8F8EEC95E09E8F8D8F88ED95E00C
:100D800098A38F8F82EE95E09AA389A3DF91CF91EC
:100D90000895FF920F931F93CF93DF9300E010E02D
:100DA000FF24FA94C0916204D0916304F801EF59D2
:100DB000F94FF082F182F282CE010E94100664EFB8
:100DC00071E080E090E00E9467240D5F1F4F0231C8
:100DD000110561F714E010937E0664E670E080E090
:100DE00090E00E946724CE010E9410061F5F103120
:100DF00091F710937E0664E670E080E090E00E9438
:100E00006724CE010E9410061150143091F780E241
:100E100080937E06CE01DF91CF911F910F91FF90BD
:100E20000C941006FC01EE0FFF1FE80FF91FEF599D
:100E3000F94F462F407C262F2073220F220F862F3A
:100E40008C708295807F637075E0761B50E0072E72
:100E500002C0559547950A94E2F7408330E0072E8B
:100E600002C0359527950A94E2F7218390E002C0ED
:100E7000959587957A95E2F782830895BF92CF92F0
:100E8000DF92EF92FF920F931F93CF93DF93B82ED1
:100E900003E010E0E0906204F0906304CB2CC0E02B
:100EA000D0E038EFD32EC630D1059CF46C2D7727D7
:100EB00067FD709583E796E00E944515D82E88EF70
:100EC000D81639F06D2DCE010E9412072196C394D9
:100ED000EACFC7010E94100668EC70E080E090E065
:100EE0000E94672488EFD81619F0C0E0D0E0DBCF6D
:100EF00060E0C7010E94DD1664EF71E080E090E0E1
:100F00000E9467240150110949F6DF91CF911F918A
:100F10000F91FF90EF90DF90CF90BF9008957F9258
:100F20008F929F92AF92BF92CF92DF92EF92FF92F9
:100F30000F931F93CF93DF936C01C0E0D0E046E0A6
:100F4000A42EB12C8090620490906304BE016C0DBD
:100F50007D1D83E796E00E944515782E05E010E0A0
:100F6000C8010596B5010E9474307C01672D0E946E
:100F70001207C4010E94100664E670E080E090E071
:100F80000E946724015011090C171D072CF060E026
:100F9000C7010E941207E4CF68EC70E080E090E0A7
:100FA0000E9467242196C630D10581F6DF91CF914A
:100FB0001F910F91FF90EF90DF90CF90BF90AF9077
:100FC0009F908F907F900895CF92DF92EF92FF9243
:100FD0000F931F93CF93DF93EC0100916204109164
:100FE000630426E030E040E050E060E070E0CB01D8
:100FF0000E946E2D6B017C01BE0183E796E00E948A
:101000004515883F01F1682FC6010E941207C801EB
:101010000E94100662E370E080E090E00E94672486
:1010200026E030E040E050E060E070E0CB010E945C
:101030006E2DDC01CB0160E00E9412072196CF3FAC
:1010400083E0D80774F2DF91CF911F910F91FF9049
:10105000EF90DF90CF900895CF92DF92EF92FF92C2
:101060000F931F93CF93DF93CDB7DEB762970FB681
:10107000F894DEBF0FBECDBF6C01E12CF12C00E077
:1010800010E0B8016C0D7D1D83E796E00E944515C8
:10109000682FC8010E941207D701AF59B94FE1E08C
:1010A000F0E0EC0FFD1FEE0DFF1D8C91808311967B
:1010B0008C911197818312968C9182830F5F1F4FC1
:1010C00083E0E80EF11C06301105D9F600916204A8
:1010D00010916304C8010E94100668EC70E080E083
:1010E00090E00E94672451E6E52E56E0F52E62E17D
:1010F000D62EF7018D2D11928A95E9F7C8010E942D
:10110000100668EC70E080E090E00E946724FE0129
:101110003196D7018D2D01900D928A95E1F7C80186
:101120000E94100668EC70E080E090E00E94672466
:10113000F7018D2D11928A95E9F7C8010E941006DA
:1011400068EC70E080E090E00E946724FE01319638
:10115000D7018D2D01900D928A95E1F7C8010E946B
:10116000100668EC70E080E090E00E946724F701D0
:101170008D2D11928A95E9F7C8010E94100664EF3F
:1011800071E080E090E00E946724FE013196D70173
:101190008D2D01900D928A95E1F7C8010E941006ED
:1011A00064EF71E080E090E00E946724F7018D2DEC
:1011B00011928A95E9F7C8010E94100668EC70E068
:1011C00080E090E00E946724FE013196D7018D2DCA
:1011D00001900D928A95E1F7C8010E94100664EF14
:1011E00071E080E090E00E946724F7018D2D11925C
:1011F0008A95E9F7C8010E94100668EC70E080E06B
:1012000090E00E946724FE013196D7018D2D019058
:101210000D928A95E1F7C8010E94100664EF71E013
:1012200080E090E00E946724F7018D2D11928A954D
:10123000E9F7C8010E94100664EF71E080E090E0D9
:101240000E946724FE013196D7018D2D01900D92E9
:101250008A95E1F7C8010E94100668EC70E080E012
:1012600090E00E946724F7018D2D11928A95E9F78D
:10127000C8010E94100668EC70E080E090E00E94D7
:101280006724FE013196D7018D2D01900D928A952C
:10129000E1F7C8010E94100668EC70E080E090E081
:1012A0000E946724F7018D2D11928A95E9F7C801F4
:1012B0000E94100668EC70E080E090E00E946724D5
:1012C000FE013196D7018D2D01900D928A95E1F79F
:1012D000C8010E94100668EC70E080E090E00E9477
:1012E0006724F7011192DA94E9F7C8010E94100609
:1012F00068EC70E080E090E00E94672468EE73E0A4
:1013000080E090E00E94672462960FB6F894DEBFFA
:101310000FBECDBFDF91CF911F910F91FF90EF9046
:10132000DF90CF900895DF92EF92FF920F931F937B
:10133000CF93DF938C01C0E0D0E078EFD72EE09020
:101340006204F0906304C630D1058CF4B80183E7E1
:1013500096E00E944515D82E88EFD81641F06D2DE5
:10136000CE010E9412070F5F1F4F2196ECCFC701DD
:101370000E94100668EE73E080E090E00E9467240F
:1013800088EFD81631F0043D11051CF4C0E0D0E020
:10139000DACFDF91CF911F910F91FF90EF90DF9007
:1013A00008959F92AF92BF92CF92DF92EF92FF92F9
:1013B0000F931F93CF93DF93A82E992E03E010E095
:1013C000E0906204F09063046A2D792D6B018FEF39
:1013D000C81AD80A83E796E00E944515B82E88EF10
:1013E000B816A9F0C0E0D0E06B2DCE010E94120724
:1013F000C7010E9410066AE070E080E090E00E9461
:1014000067242196C630D10579F7B601DFCF0150A8
:101410001109D1F6DF91CF911F910F91FF90EF90BD
:10142000DF90CF90BF90AF909F900895CF9362E0F0
:1014300070E083E796E00E944515C82F86E697E0A6
:101440000E947D26C5FF03C069E070E038C0C2FF7E
:101450000BC066E070E083E796E00E94451590E0DF
:101460000C960E942C0833C0C4FF0BC068E070E0EB
:1014700083E796E00E94451590E00C960E943E0797
:1014800026C0C3FF0BC067E070E083E796E00E94D0
:10149000451590E00C960E948F0719C0C1FF0BC044
:1014A00065E070E083E796E00E94451590E00C96B9
:1014B0000E94E4070CC0C0FF0AC064E070E083E74C
:1014C00096E00E94451590E00C960E949309C6FF95
:1014D00003C06AE070E004C0C7FF0AC06BE070E0C0
:1014E00083E796E00E94451590E00C960E94D10992
:1014F00060E08091620490916304CF910C94DD16BA
:10150000CF92DF92EF92FF920F931F93CF93DF93CF
:1015100000D000D0CDB7DEB78E010F5F1F4FE12C9A
:10152000F12C6801B70183E796E00E944515F801A8
:1015300081938F01FFEFEF1AFF0A84E0E816F104B0
:1015400089F7C6010E94422D62E082E10E942225B5
:1015500061E08AE00E94222561E08AE00E945B252A
:1015600010927A0080912006811145C010921206D7
:10157000109211068FEF80931506809316068093C4
:101580001706809318068093190680931A0681E047
:1015900080931B0610921D0610921C0610921406D2
:1015A0001092130680917C0690917D06892B31F470
:1015B0008FE096E090937D0680937C06E0917A061A
:1015C000F0917B06309721F08FE096E0958384833D
:1015D0008FE096E090937B0680937A0610921F0628
:1015E00010921E068AE594E09093100680930F06F1
:1015F00081E08093200620E030E046E050E061E6A4
:1016000076E08FE096E00E949515009162041091BB
:10161000630484E0F801808380E090E0FC01EF59EE
:10162000F94F108211821282039682319105B1F72F
:10163000C8010E94100644EF51E060E070E086E6C9
:1016400097E00E94F12840E659E060E070E086E60D
:1016500097E00E94772610925F0610925E060E9425
:10166000C9060E94160A61E0C8010E94DD16C80181
:101670000E9410060F900F900F900F90DF91CF9166
:101680001F910F91FF90EF90DF90CF90089586E625
:1016900097E00E947D268823F1F064EF71E080E0FE
:1016A00090E00E9467246BE171E086E697E00E947B
:1016B0000A2760E271E086E697E00E940A2762E866
:1016C00071E086E697E00E94E52664E271E086E636
:1016D00097E00C94392708950F931F93CF93DF93CE
:1016E00086E697E00E947D26882309F4C3C064EF54
:1016F00071E080E090E00E946724809110018330C7
:1017000009F474C008F067C0813009F46CC08230FD
:1017100009F0B0C06CEB71E086E697E00E943927D3
:1017200062E272E086E697E00E940A274AE050E013
:1017300060910B0186E697E00E942D2863E372E03A
:1017400086E697E00E940A2780910B0190E00197BE
:10175000FC01EE0FFF1FE80FF91FEF59F94F40E1B1
:1017600050E0608186E697E00E942D2880910B0171
:1017700090E00197FC01EE0FFF1FE80FF91FEF59F2
:10178000F94F40E150E0618186E697E00E942D2804
:1017900080910B0190E00197FC01EE0FFF1FE80F15
:1017A000F91FEF59F94F40E150E0628186E697E07A
:1017B0000E942D2861E472E086E697E00E940A27E5
:1017C0004AE050E060910A0186E697E00E942D28E9
:1017D0006CE172E047C08530D1F0863009F04AC034
:1017E00061EE72E03FC067E571E03CC063E070E02D
:1017F00083E796E00E94451587FF03C066E572E027
:1018000031C081E08093100160E972E02BC06AEC86
:1018100070E086E697E00E942727C0E0D0E000E075
:1018200010E0BE0183E796E00E94451521E030E01C
:101830008F3F11F020E030E0020F131F2196C115F9
:1018400084E0D80771F762ED72E086E697E00E94C7
:101850000A274AE050E0B80186E697E00E944B284C
:1018600064ED72E086E697E0DF91CF911F910F91D2
:101870000C943927DF91CF911F910F91089586E63F
:1018800097E00E947D268823C9F166E173E086E631
:1018900097E00E940A2760E070E083E796E00E94EC
:1018A000451540E150E0682F86E697E00E942D281C
:1018B00061E070E083E796E00E94451540E150E06A
:1018C000682F86E697E00E942D2865E373E086E6A0
:1018D00097E00E940A276FEF73E083E796E00E948B
:1018E00045154AE050E0682F86E697E00E942D28D3
:1018F00064E473E086E697E00C9439270895FF923C
:101900000F931F93CF93DF93EC0180910E068F5FAF
:10191000982F977090930E0680FD02C080E001C062
:1019200080E891FD8064947009F0806210E1F12EEE
:10193000F80E20E030E000E011E0FE01E20FF31FBE
:101940006285662331F070E0C8010E9474306F5FD9
:1019500001C060E067834F2D469F412D11244483D1
:10196000662311F0615067832F5F3F4F23303105AD
:1019700021F7DF91CF911F910F91FF9008952F9242
:101980003F924F925F926F927F928F929F92AF920F
:10199000BF92CF92DF92EF92FF920F931F93CF935C
:1019A000DF93CDB7DEB761970FB6F894DEBF0FBEF9
:1019B000CDBF6C015A01F901DC011C968C917A8330
:1019C00069835C834B8390819B8791819C87928103
:1019D0009D87813029F4CE0101960E947F0C06C0BC
:1019E0001A86198618861F821E821D8289819A8115
:1019F0008E0D911D9A838983002319F083E08E0D4B
:101A000001C080E08E870E944424F601278530893A
:101A1000621B730B62337105B0F3F894E981FA81AC
:101A20008BB15C9859848E81452D481B4E83718102
:101A3000772321F0740F08F47FEF01C070E02C854C
:101A4000729F712D11248E85AB81BC819B853D8554
:101A50006D80688A7F80798A38844A84E12C1F8669
:101A6000212CF12C3D0161E0661A7108AB2B09F4C1
:101A700099C1052D041B402F132D5889151B188B58
:101A8000642D0989601B698B9BB0192D1061912E03
:101A90008BB0582D5F7E852ED301122D0F8578884F
:101AA000662E6F2D5E2D9BB800C077FF8BB86081CE
:101AB0001127889400C000C0002C8BB86111670DFD
:101AC00000C0002C9BB800C076FF8BB808F46FEF05
:101AD000889400C000C000C08BB890FD160F00C0F5
:101AE000002C9BB800C075FF8BB81795889491FDAA
:101AF000160F00C000C0002C8BB81795889400C04A
:101B0000002C9BB800C074FF8BB892FD160F179580
:101B1000889400C000C0002C8BB893FD160F00C045
:101B2000002C9BB800C073FF8BB81795889494FD68
:101B3000160F00C000C0002C8BB81795889400C009
:101B4000002C9BB800C072FF8BB895FD160F17953F
:101B5000889400C000C0002C8BB896FD160F00C002
:101B6000002C9BB800C071FF8BB81795889497FD27
:101B7000160F00C000C0002C8BB81795889400C0C9
:101B8000002C9BB800C070FF8BB800C000C0002CB8
:101B900000C000C08BB800C000C0002C9BB800C0C3
:101BA00017FF8BB862810027889400C000C0002C0A
:101BB0008BB86111660D00C0002C9BB800C016FFE9
:101BC0008BB808F46FEF889400C000C000C08BB8D9
:101BD00030FD060F00C0002C9BB800C015FF8BB86D
:101BE0000795889431FD060F00C000C0002C8BB80B
:101BF0000795889400C0002C9BB800C014FF8BB8D8
:101C000032FD060F0795889400C000C0002C8BB8E9
:101C100033FD060F00C0002C9BB800C013FF8BB82B
:101C20000795889434FD060F00C000C0002C8BB8C7
:101C30000795889400C0002C9BB800C012FF8BB899
:101C400035FD060F0795889400C000C0002C8BB8A6
:101C500036FD060F00C0002C9BB800C011FF8BB8EA
:101C60000795889437FD060F00C000C0002C8BB884
:101C70000795889400C0002C9BB800C010FF8BB85B
:101C8000E80FF11D889400C000C000C08BB800C0F0
:101C900000C0002C9BB800C007FF8BB8618177277C
:101CA000889400C000C0002C8BB86111640F00C084
:101CB000002C9BB800C006FF8BB808F46FEF889427
:101CC00000C000C000C08BB820FD760F00C0002C03
:101CD0009BB800C005FF8BB87795889421FD760FDF
:101CE00000C000C0002C8BB87795889400C0002CF1
:101CF0009BB800C004FF8BB822FD760F77958894BF
:101D000000C000C0002C8BB823FD760F00C0002C53
:101D10009BB800C003FF8BB87795889424FD760F9D
:101D200000C000C0002C8BB87795889400C0002CB0
:101D30009BB800C002FF8BB825FD760F779588947D
:101D400000C000C0002C8BB826FD760F00C0002C10
:101D50009BB800C001FF8BB87795889427FD760F5C
:101D600000C000C0002C8BB87795889400C0002C70
:101D70009BB800C000FF8BB800C000C0002C00C0A2
:101D800000C00F87F62E788A698A612F1F2D8BB8C5
:101D9000698A788AE52EF12E0F87262E00C000C0B2
:101DA000002C60CE20EE31E0D5010E94CF306130B2
:101DB000A0E47A0781059105B0F000915E071091CB
:101DC0005F072091600730916107DC01CB014EE095
:101DD000B695A795979587954A95D1F7800F911F4E
:101DE000A21FB31F0BC080915E0790915F07A09167
:101DF0006007B09161070196A11DB11D80935E0738
:101E000090935F07A0936007B093610778940E9456
:101E10004424F601708B678761960FB6F894DEBF95
:101E20000FBECDBFDF91CF911F910F91FF90EF902B
:101E3000DF90CF90BF90AF909F908F907F906F90EA
:101E40005F904F903F902F900895EF92FF920F93E5
:101E5000E12CF12C00E00E94BF0C0F91FF90EF905D
:101E60000895EF92FF920F93E12CF12C01E00E9474
:101E7000BF0C0F91FF90EF900895EF92FF920F9398
:101E8000CF93DF9300D01F92CDB7DEB7AB0119829D
:101E90001A821B82E12CF12C00E09E012F5F3F4F44
:101EA000B9010E94BF0C0F900F900F90DF91CF915E
:101EB0000F91FF90EF90089562E18BE596E00E940C
:101EC0008F208EEE95E090935C0680935B0688E30E
:101ED00096E00C94140686E697E00E947D268823FF
:101EE00031F062E773E086E697E00E940A2786E613
:101EF00097E00E94E425892BD1F386E697E00E94C3
:101F0000F4250895EF92FF920F931F93CF93DF93E1
:101F100086E697E00E94E425892BD1F308E216E0DB
:101F2000C0E0D0E086E697E00E94F4257801F80151
:101F300081938F01682F86E697E00E94BA25F7010A
:101F400080818D3071F4C85DD94F198268E276E0E6
:101F500086E697E00E94FA0586E697E00E9413273E
:101F60000CC086E697E00E94E425892BD1F32196E8
:101F7000CF30D105B9F61092370688E296E0DF91AE
:101F8000CF911F910F91FF90EF900895EF92FF92E4
:101F90000F931F93CF93DF93CDB7DEB72E970FB676
:101FA000F894DEBF0FBECDBF7C0149E050E065E88C
:101FB00073E0CE0101960E949D318E01065F1F4F96
:101FC00040E1B801C7010E94B13149E050E0B801D9
:101FD000CE0101960E947E31F80101900020E9F7C0
:101FE000BF0161507109601B710B81E090E08C0FA3
:101FF0009D1F680F791F86E697E00E940A2760E21E
:1020000086E697E00E94BA252E960FB6F894DEBFBA
:102010000FBECDBFDF91CF911F910F91FF90EF9039
:1020200008953F924F925F926F927F928F929F920C
:10203000AF92BF92CF92DF92EF92FF920F931F93D6
:10204000CF93DF93CDB7DEB762970FB6F894DEBFBC
:102050000FBECDBF8C016B01C80ED91ECE010196FB
:102060007C015E0191E1A90EB11C50E2352E60E1C8
:10207000862E912C0C151D050CF05EC0F7013192D7
:10208000EA15FB05E1F7198AC801B4010E94743012
:102090003C01C801861997090E94C60F2701C20199
:1020A0008E199F098615970554F4F20131922F017C
:1020B0006AE873E086E697E00E940A27F0CF77FE91
:1020C00002C0612C712C601A710A6E0C7F1CB80161
:1020D00083E796E00E944515682F992787FD909524
:1020E0006A8B0E9478316A89892B11F48EE201C0D3
:1020F000862FF301E00FF11F808340E150E086E678
:1021000097E00E942D2860E286E697E00E940C2767
:102110000F5F1F4FC8018F709927892B19F00C157D
:102120001D05A9F6B70186E697E00E940A2786E614
:1021300097E00E9413279ECF62960FB6F894DEBFF9
:102140000FBECDBFDF91CF911F910F91FF90EF9008
:10215000DF90CF90BF90AF909F908F907F906F90C7
:102160005F904F903F900895AF92BF92DF92EF92B1
:10217000FF920F931F93CF93DF931F92CDB7DEB7DC
:102180000E94820F80912806992787FD90950E94D2
:102190006B31892B09F444C0B8E2EB2EB6E0FB2E7C
:1021A00000E010E0A12CB12CF70121917F01822FDA
:1021B000992787FD909529830E946B312981892B6E
:1021C000E1F0A4E0000F111FAA95E1F72A331CF4F7
:1021D000F0EDDF2E09C027341CF4EFEBDE2E04C037
:1021E00027361CF47FE9D72ED20E0D298FEFA81ABF
:1021F000B80AE3E0AE16B104B9F610930F010093EC
:102200000E01F501E85DF94F80818C3249F4C5017A
:10221000875D994F0E944D3190930D0180930C0181
:1022200060910C0170910D0180910E0190910F0150
:102230000E94111080910E0190910F0120910C01CC
:1022400030910D01820F931F90930F0180930E0127
:102250000F90DF91CF911F910F91FF90EF90DF9042
:10226000BF90AF900895EF92FF920F931F93CF937B
:10227000DF9386E697E00E94F42586E697E00E94C9
:10228000132723E0E22EF12C80910E0190910F0193
:1022900003978D3F934020F0F0920F01E0920E01E2
:1022A00080910E0190910F010E94C60F60910E0166
:1022B00070910F0183E796E00E94451540E150E0E0
:1022C000682F86E697E00E942D286EE873E086E688
:1022D00097E00E940A27CFEFDFEF86E697E00E94A3
:1022E000E425892BD1F386E697E00E94F4258C0142
:1022F000682F86E697E00E940C270A33110554F4F4
:1023000000331105A4F40D301105E1F10E32110571
:1023100011F35BC0013411050CF457C007341105EB
:10232000B4F0C801815691090697C0F04EC0005321
:102330001109CF3F8FEFD80711F4C0E0D0E094E04F
:10234000CC0FDD1F9A95E1F7C02BD12BC6CF0753D9
:102350001109CF3F2FEFD20749F406C007551109E5
:10236000CF3F8FEFD80711F4C0E0D0E084E0CC0F6E
:10237000DD1F8A95E1F7C02BD12B0D30110509F037
:10238000ACCF06C0CF3F2FEFD20711F4CEEFDFEF77
:1023900086E697E00E941327CF3F8FEFD807A9F07A
:1023A000D7FD09C060910E0170910F014C2F83E79A
:1023B00096E00E94481580910E0190910F010196C0
:1023C00090930F0180930E015FCFDF91CF911F910A
:1023D0000F91FF90EF900895CF9383E090E090935A
:1023E0000F0180930E0180E290E090930D018093A5
:1023F0000C0162E973E086E697E00E94FA0565EA5F
:1024000073E086E697E00E94FA056CEE73E086E6DC
:1024100097E00E94FA0586E697E00E94E4251816E8
:102420001906CCF786E697E00E94F425C82F682F9E
:1024300086E697E00E940C27C33579F02CF4C4346B
:1024400049F0CB34A1F00BC0CB3689F0C33729F06B
:10245000C43629F40E94B41002C00E94331186E6EB
:1024600097E00E94F42518161906CCF3CECFCF9131
:1024700008956F927F928F929F92AF92BF92CF9268
:10248000DF92EF92FF920F931F93CF93DF9343E07E
:10249000A42EC0916204D0916304BB24B39456E08F
:1024A000952E65E0862E72E0772E86E697E00E94F4
:1024B0007D26882309F431C280915E0690915F06E3
:1024C000892B09F02AC286E697E00E94E1250E9446
:1024D000470B0E946C0B0E943F0C0E946B0F182F41
:1024E000682F86E697E00E944B27113569F46BE16F
:1024F00071E086E697E00E940A2781E090E09093E1
:102500005F0680935E06D1CF12350CF05EC01434A6
:1025100059F5809110018230E1F480910B01811115
:1025200003C06DE378E006C08091600681110DC0A4
:1025300060E278E086E697E00E94272768EE73E085
:1025400080E090E00E946724B0CFCE010E94100688
:10255000ACCF61E178E086E697E00E94272786E627
:1025600097E00E94E125A1CF15340CF027C11F335D
:1025700039F486E697E00E94E12561ED77E00AC034
:102580001034BCF41B3159F486E697E00E94E12533
:102590006CEF77E086E697E00E94272786CF1A3215
:1025A00069F480911001813009F07FCFA092100171
:1025B0007CCF1234C9F0133409F44FC086E697E09B
:1025C0000E94E12561EC77E0E5CF193609F405C1F9
:1025D0000CF04FC1133609F440C00CF090C1133514
:1025E00009F451C1123651F780911001823009F07F
:1025F0005CCF64E778E086E697E00E94E52644EF4A
:1026000051E060E070E086E697E00E94F12886E6FF
:1026100097E00E94E425892BD1F386E697E00E949B
:102620006629662321F0613818F060E801C061E096
:1026300060930A0168E578E086E697E00E94E52667
:102640004AE050E060910A0186E697E00E94342853
:1026500080910A0180937E0628CF809110018130FD
:1026600011F49092100180911001823009F01DCF79
:102670006FEE73E086E697E00E940A274AE050E09A
:1026800060910B0186E697E00E942D286EE074E0D1
:1026900086E697E00E940A2786E697E00E94E425F6
:1026A000892BD1F386E697E00E9466296F3F71057A
:1026B00019F014F06FEF70E06B0177FF02C0C12CCE
:1026C000D12C4AE050E0B60186E697E00E9400284F
:1026D00067E174E086E697E00E940A2786E697E0C5
:1026E0000E94E425892BD1F386E697E00E946629B3
:1026F0006F3F710519F014F06FEF70E07B0177FF09
:1027000002C0E12CF12C4AE050E0B70186E697E0E8
:102710000E94002863E274E086E697E00E940A27A0
:1027200086E697E00E94E425892BD1F386E697E0C0
:102730000E9466296F3F710519F014F06FEF70E089
:102740008B0177FF02C000E010E04AE050E0B801E2
:1027500086E697E00E94082880910B0190E001979F
:10276000FC01EE0FFF1FE80FF91FEF59F94FC08270
:10277000E18202836EE274E086E697E00E940A2717
:1027800040E150E0B60186E697E00E94002840E173
:1027900050E0B70186E697E00E94002840E150E053
:1027A000B80186E697E00E94082864EF71E080E0B7
:1027B00090E00E946724B092600677CE1B3419F433
:1027C000B092100172CE1C3484F4153419F40E94B6
:1027D000EC116BCE193409F0F1CE809110018130EB
:1027E00009F063CE8092100160CE1C3441F48091D8
:1027F0001001813009F059CE7092100156CE10357B
:1028000009F0DCCE80911001823009F04ECE44EF09
:1028100051E060E070E086E697E00E94F12860E415
:1028200074E086E697E00E940A2786E697E00E9419
:10283000E425892BD1F321E030E040E050E06AE06C
:1028400086E697E00E94692980E090E00E944D3181
:10285000882329F0682F873018F066E001C061E016
:1028600060930B014AE050E086E697E00E9434282E
:102870001CCE103739F20CF449C0113709F437CEA9
:10288000133709F09BCE80911001833009F00DCEF3
:102890008BE596E00E941D176AE376E08BE596E0F3
:1028A0000E94EB208823C1F360EB78E086E697E096
:1028B0000E94272788E396E00E943B208AE396E067
:1028C0000E94671768EE73E080E090E00E94672442
:1028D0008BE596E00E941D1768EE73E080E090E0C3
:1028E0000E94672461E978E086E697E00E94272746
:1028F00086E697E00E94E425892BD1F3D6CD1436E5
:1029000009F407CE153609F462CF58CE1B3609F408
:1029100057CF1C3609F46BCF51CE2CE030E040E0AD
:1029200050E066E070E080E090E00E946E2D3B0198
:10293000C0E0D0E0C615D705F4F41F921F921F9295
:102940001F92812C912CA12CB12CC12CD12CE12CCB
:10295000F12C00E010E020E030E040E050E069E0E1
:1029600070E082E597E00E94252221960F900F905B
:102970000F900F90DFCF24E630E040E050E061E0C0
:1029800070E080E090E00E946E2D6B017C0163E0BE
:1029900070E083E796E00E944515282F2F738FE59E
:1029A00090E0821B9109AA2797FDA095BA2F8C155C
:1029B0009D05AE05BF050CF047C062E070E083E7FF
:1029C00096E00E944515C82F85FF18C022E030E030
:1029D00040E050E060E070E0CB010E946E2D1616E2
:1029E00017061806190614F4C06401C0C0684C2FFD
:1029F00062E070E083E796E00E94481563E070E0D3
:102A000083E796E00E9445158F3F44F441E0480F6C
:102A100063E070E083E796E00E944815C3E0D0E0F1
:102A20002AEF33E040E050E060E070E0CB010E942C
:102A30006E2DCB010E94E407219791F768EE73E0B9
:102A400080E090E00E9467240E94160A64E670E02D
:102A500080E090E00E946724C0916204D0916304FA
:102A600061E0CE010E94DD16CE01DF91CF911F9172
:102A70000F91FF90EF90DF90CF90BF90AF909F901D
:102A80008F907F906F900C941006CB010C94DE31E8
:102A9000CB01642F0C94E631CF92DF92EF92FF923C
:102AA0000F931F93CF93DF93FC018B011082118250
:102AB0001282442381F1C0E0D0E0C42ED12CE12C5D
:102AC000F12CD801AC0FBD1F16962C9116971996B4
:102AD0006C912223E1F06623D1F030E040E050E039
:102AE0002F5F3F4F4F4F5F4F70E080E090E06F5F90
:102AF0007F4F8F4F9F4F0E9450309B01AC01C70109
:102B0000B6010E945030DF01AC0FBD1F8C9321969F
:102B1000C330D105B1F6CF01DF91CF911F910F9155
:102B2000FF90EF90DF90CF900895CF92DF92EF92D9
:102B3000FF920F931F93CF93DF93EC016B018A01F8
:102B40007901121613061CF07A0100E010E0E8810A
:102B5000F9810480F581E02DCE010995C801880F27
:102B6000991F800F911F8C0D9D1D9B838A83FE866C
:102B7000ED86CE01DF91CF911F910F91FF90EF90E5
:102B8000DF90CF900895CF93DF93C0917C06D091D2
:102B90007D06209791F08A819B81009751F02D85C9
:102BA0003E85A901440F551F420F531F60E00E944C
:102BB00004170C80DD81C02DECCFDF91CF910895FB
:102BC000CF92DF92EF92FF92CF93DF93EC0180914F
:102BD0007806909179069C012F5F3F4F30937906DC
:102BE00020937806861797079CF10E9438249B0152
:102BF000AC01E0917806F091790688EE93E0E89FC9
:102C0000B001E99F700DF89F700D1124882777FDA2
:102C10008095982FC0907406D0907506E090760647
:102C2000F09077062C193D094E095F090E94883003
:102C30003A83298310927906109278060E943824EC
:102C4000609374067093750680937606909377066A
:102C5000DF91CF91FF90EF90DF90CF900895AF92EA
:102C6000BF92CF92DF92EF92FF920F931F93CF9379
:102C7000DF9300D01F92CDB7DEB77C01B62E009156
:102C80007C0610917D060115110559F1D8011C969D
:102C9000AC901C97F701818192818436910510F4E4
:102CA0001C961C92D801ED91FC91C280D3804B2DD3
:102CB000B801CE0101960E944C15F8014585568554
:102CC000628173819E012F5F3F4FC801F601099514
:102CD000D8011C96AC921C9714960D911C911597D7
:102CE000D2CF69E170E0C7010E94E0150F900F900C
:102CF0000F90DF91CF911F910F91FF90EF90DF9098
:102D0000CF90BF90AF9008958F929F92AF92BF9255
:102D1000CF92DF92EF92FF920F931F93CF93DF93A7
:102D200000D01F92CDB7DEB77C016B01942E0091CD
:102D30007C0610917D060115110551F1D8011C96F4
:102D40008C901C97F701818192818436910510F453
:102D50001C961C92D801ED91FC91A080B180492D68
:102D6000B801CE0101960E944C15F80145855685A3
:102D70009E012F5F3F4FB601C801F5010995D801AB
:102D80001C968C921C9714960D911C911597D3CF7D
:102D900069E170E0C7010E94E0150F900F900F905D
:102DA000DF91CF911F910F91FF90EF90DF90CF9027
:102DB000BF90AF909F908F9008950F931F93CF93E4
:102DC000DF9300D01F92CDB7DEB78C01662349F0A8
:102DD00019821A821B8240E0BE016F5F7F4F0E9402
:102DE0008416C8010E94C3150F900F900F90DF91B9
:102DF000CF911F910F9108958FEF80937E061092CF
:102E0000800610927F060895DC0140FF03C001C0D8
:102E10006D936D934250E0F75040D0F7089580E0F5
:102E20000895FC0112821382148215821682178281
:102E30001286089510925107089581E090E09093D2
:102E4000830680938206109251070895CF93DF93F3
:102E5000CDB7DEB762970FB6F894DEBF0FBECDBF19
:102E600089300CF080E02EE739E03A8329832AE7A5
:102E700039E03C832B8325E739E03E832D8321E72E
:102E800039E038872F832DE639E03A8729872FE507
:102E900039E03C872B872BE539E03E872D8726E5F7
:102EA00039E0388B2F872CE439E03A8B298BE82FD7
:102EB000EE0FFF0BEC0FFD1F8181928162960FB622
:102EC000F894DEBF0FBECDBFDF91CF9108952F9252
:102ED0003F924F925F926F927F928F929F92AF92AA
:102EE000BF92CF92DF92EF92FF920F931F93CF93F7
:102EF000DF93EC018A81893074F563E479E086E63A
:102F000097E00E94E5268A810E942617BC0186E68A
:102F100097E00E94E52661E479E086E697E00E946A
:102F2000E5266A81772767FD70954AE050E086E6DE
:102F300097E00E94002867E379E086E697E00E9428
:102F4000E5264B815C816D817E8120E130E086E663
:102F500097E00E94202864E379E086E697E00E94EB
:102F6000E5264AE050E06F8186E697E00E942D2832
:102F70006DE279E086E697E00E94272760E279E03B
:102F800086E697E00E94E5264AE050E06A8586E6FC
:102F900097E00E942D2868E179E086E697E00E949C
:102FA000E526E885F985608171814AE050E086E692
:102FB00097E00E9451286EE079E086E697E00E9453
:102FC000E526E885F985628173814AE050E086E66E
:102FD00097E00E944B286AE079E086E697E00E943D
:102FE000E526E885F985648175814AE050E086E64A
:102FF00097E00E945128E885F98582819381448079
:103000005580480E591E612C712CC12CD12C212CBD
:10301000312CAA24AA943FE7B32E88248A944FE740
:10302000942E53E0E52EF12C8A8590E0E816F906FF
:103030000CF06EC0E885F985C701880F991FE80F6D
:10304000F91F00811181C801AA2797FDA095BA2F09
:10305000480E591E6A1E7B1EE0FE16C00A151B058F
:103060000CF45801C016D1060CF46801B70175952F
:103070006795615071094AE050E086E697E00E944A
:10308000002867E079E00DC01016110624F4081539
:1030900019050CF44801201631060CF4180164E0FF
:1030A00079E086E697E00E94E5264AE050E0B80124
:1030B00086E697E00E94002887010150110900FF71
:1030C00006C062E079E086E697E00E94E526C80146
:1030D00083709927019731F46FEF78E086E697E0E7
:1030E0000E94E526C80187709927019721F486E69A
:1030F00097E00E9413270F7111270130110521F469
:1031000086E697E00E9413278FEFE81AF80A8CCF23
:1031100086E697E00E94132767EF78E086E697E05F
:103120000E94E5262AE030E0B301A20186E697E09E
:103130000E9467286CEE78E086E697E00E94E5261C
:103140004AE050E0B50186E697E00E94002865EE6F
:1031500078E086E697E00E94E5264AE050E0B60176
:1031600086E697E00E9408286AED78E086E697E018
:103170000E94E5264AE050E0B40186E697E00E940E
:10318000002863ED78E086E697E00E94E5264AE0B5
:1031900050E0B10186E697E00E94082886E697E0B5
:1031A000DF91CF911F910F91FF90EF90DF90CF9023
:1031B000BF90AF909F908F907F906F905F904F9057
:1031C0003F902F900C941327FC0188E694E09183A4
:1031D000808389E896E09187808713861282138224
:1031E0001482158216821782128608952F923F92BA
:1031F0004F925F926F927F928F929F92AF92BF9207
:10320000CF92DF92EF92FF920F931F93CF93DF93B2
:10321000CDB7DEB72E970FB6F894DEBF0FBECDBF89
:103220001C013A872987BE82AD8281E0D1011C96BC
:103230008C931C97662321F01A968C91861388C173
:10324000F101938491103AC041155105B9F1A08460
:10325000B184D50112960D90BC91A02DBA83A9839B
:10326000BA0180E090E00E945F2F2B013C0120E03A
:1032700030E040E45FE30E94ED2F0E94332FE981AC
:10328000FA81E617F70708F415C2D5011296AD903A
:10329000BC90139720E030E040EA5FE3C301B20145
:1032A0000E94ED2F20E030E040E85FE30E94CF2E47
:1032B0000E94332F6A157B0508F4FCC182E0F101FE
:1032C000848729853A852115310589F1A084B18447
:1032D000D50114968D909C901597B90180E090E0EF
:1032E0000E945F2F2B013C0120E030E040E45FE3CF
:1032F0000E94ED2F0E94332F8616970608F428C1EE
:10330000F501A480B58020E030E040EA5FE3C3012E
:10331000B2010E94ED2F20E030E040E85FE30E9420
:10332000CF2E0E94332F6A157B0508F411C1D101FD
:103330001A966C900115110509F463C0812C912C2B
:103340005401C601A0E0B0E089839A83AB83BC83BB
:10335000C801A0E0B0E08D839E83AF83B887C7012A
:10336000A0E0B0E089879A87AB87BC87D1011C9623
:103370007C90272D30E07614D8F5D10118964D9029
:103380005C901997F901EE0FFF1FE40DF51DFE8704
:10339000ED870081118169817A818B819C810E94F6
:1033A0005F2F6B017C0120E030E040E45FE30E948E
:1033B000ED2F0E94332F0617170708F4C9C0AD85FB
:1033C000BE850D911C9120E030E040EA5FE3C7012B
:1033D000B6010E94ED2F20E030E040E85FE30E945C
:1033E000CF2E0E94332F6017710708F07BC0B0C04A
:1033F000C901019797FDC90195958795F1018783CB
:1034000069C06A9483E0D1011C968C93812C912C25
:103410005401C701A0E0B0E089839A83AB83BC83E9
:10342000C601A0E0B0E089879A87AB87BC87AD81F1
:10343000BE81CD01A0E0B0E08D839E83AF83B887CD
:10344000F1017484272D30E07614D0F5F101408429
:103450005184C901880F991F840D951D9E878D8702
:10346000DC010D911C9169817A818B819C810E9484
:103470005F2F6B017C0120E030E040E45FE30E94BD
:10348000ED2F0E94332F0617170708F461C0ED8552
:10349000FE850081118120E030E040EA5FE3C70152
:1034A000B6010E94ED2F20E030E040E85FE30E948B
:1034B000CF2E0E94332F6017710708F087C048C0D5
:1034C000C901019797FDC901959587958150D10153
:1034D00017968C93F10183829482A582B6829924F7
:1034E0009394E8C081E0870DD1011C968C938201F2
:1034F000080F111D080F111DF801408051806D81CA
:103500007E818F8198850E945F2F6B017C0120E076
:1035100030E040E45FE30E94ED2F0E94332F461617
:103520005706C0F4D8014D905C9069857A858B85EB
:103530009C850E945F2F6B017C0120E030E040E41D
:103540005FE30E94ED2F0E94332F4616570618F5B1
:10355000912CB0C0F8014080518020E030E040EA7A
:103560005FE3C701B6010E94ED2F20E030E040E8A4
:103570005FE30E94CF2E0E94332F6415750590F2F1
:10358000880C991CAA1CBB1C689480F873947394D3
:10359000F1017486EBCED8010D911C9120E030E052
:1035A00040EA5FE3C701B6010E94ED2F20E030E062
:1035B00040E85FE30E94CF2E0E94332F601771070F
:1035C00038F2880C991CAA1CBB1CE0CF81E0870D47
:1035D000F10184878201080F111D080F111DD80108
:1035E0004D905C9069857A858B859C850E945F2FC4
:1035F0006B017C0120E030E040E45FE30E94ED2FAE
:103600000E94332F4616570610F1D8014D905C905A
:1036100020E030E040EA5FE3C701B6010E94ED2FF1
:1036200020E030E040E85FE30E94CF2E0E94332F7D
:103630006415750560F0880C991CAA1CBB1C689465
:1036400080F873947394D1011C967C92F9CEF801A2
:10365000408051806D817E818F8198850E945F2F8F
:103660006B017C0120E030E040E45FE30E94ED2F3D
:103670000E94332F4616570608F46ACFF8010081DE
:10368000118120E030E040EA5FE3C701B6010E940B
:10369000ED2F20E030E040E85FE30E94CF2E0E9453
:1036A000332F6017710708F453CF880C991CAA1C9C
:1036B000BB1CC7CF892D2E960FB6F894DEBF0FBE68
:1036C000CDBFDF91CF911F910F91FF90EF90DF90D1
:1036D000CF90BF90AF909F908F907F906F905F90B2
:1036E0004F903F902F900895AF92BF92CF92DF926C
:1036F000EF92FF920F931F93CF93DF93EC01E8813A
:10370000F98136970190F081E02DE80FF91F82854D
:10371000843089F5A085B18514968D919C9115977B
:103720008739964040F114968D919C9115978E3F64
:103730009A4008F516968D919C911797873A91407B
:10374000D0F016968D919C911797833C924098F4F7
:103750001782E881F98136970190F081E02DEC0F16
:10376000FD1F8FEF9FEFDC0183839483A583B683D6
:1037700081E0828322C084E3A82E82E0B82E9CE9F7
:10378000C92E96E0D92E24E3E22E22E0F22E00E0AC
:1037900010E020EA31E140E453E264E4CF010E940A
:1037A000F618882351F0E881F98136970190F0816D
:1037B000E02DEC0FFD1F91E09283DF91CF911F91DF
:1037C0000F91FF90EF90DF90CF90BF90AF90089552
:1037D000AF92BF92CF92DF92EF92FF920F931F931F
:1037E000CF93DF93EC01E881F98136978081918155
:1037F0008C0F9D1FFC012285322F377F323131F033
:10380000203221F02A3211F080E01FC0A12CB12C0F
:1038100038E5C32E32E0D32E48E5E42E42E0F42E04
:1038200000EB14E028E532E040E659E060E00E9459
:10383000F618882349F3E881F98136970190F081E1
:10384000E02DEC0FFD1F92E09283DF91CF911F914D
:103850000F91FF90EF90DF90CF90BF90AF900895C1
:10386000AF92BF92CF92DF92EF92FF920F931F938E
:10387000CF93DF93EC01E881F981369780819181C4
:1038800051E4A52E53E0B52E63ECC62E69E0D62E8A
:1038900071E4E72E73E0F72E00E010E024E03DE055
:1038A00044E05DE060E38C0F9D1F0E94F6188823C2
:1038B00051F0E881F98136970190F081E02DEC0F0D
:1038C000FD1F95E09283DF91CF911F910F91FF90A3
:1038D000EF90DF90CF90BF90AF900895AF92BF92DE
:1038E000CF92DF92EF92FF920F931F93CF93DF93CC
:1038F000EC01E881F981369780819181E4E3AE2E75
:10390000E2E0BE2EFCE9CF2EF6E0DF2EA4E3EA2EA5
:10391000A2E0FA2E00E010E020EA31E140EA51E1B5
:1039200064E48C0F9D1F0E94F618882351F0E881F3
:10393000F98136970190F081E02DEC0FFD1F97E0A3
:103940009283DF91CF911F910F91FF90EF90DF90C5
:10395000CF90BF90AF9008959F92AF92BF92CF92B9
:10396000DF92EF92FF920F931F93CF93DF93EC01BF
:10397000E881F981369780819181BDE0AB2EB2E07C
:10398000BB2E17E2C12E16E0D12E0DE0E02E02E094
:10399000F02E00E010E028E630E140ED50E264E275
:1039A0008C0F9D1F0E94F618982E81113BC0E88154
:1039B000F98136970190F081E02DEC0FFD1F828593
:1039C000823209F04AC020E030E04DE052E060E091
:1039D000CF010E94F618882309F43FC0E881F981DD
:1039E00036970190F081E02DEC0FFD1FA085B18589
:1039F00018968D919C9119978D39944000F11896E5
:103A00008D919C911997823B9740C8F443815481D2
:103A1000658176815068438354836583768387818B
:103A20008F5F8783E881F98136970190F081E02DDF
:103A3000EC0FFD1F86E08283992493940EC01896A4
:103A40008D919C9119978938914038F018968D91F5
:103A50009C9119978239924010F3892DDF91CF9173
:103A60001F910F91FF90EF90DF90CF90BF90AF909C
:103A70009F9008952F923F924F925F926F927F9204
:103A80008F929F92AF92BF92CF92DF92EF92FF926E
:103A90000F931F93CF93DF9300D01F92CDB7DEB764
:103AA0007C015B016A01DC01ED91FC91369700819C
:103AB0001181080F191FF80194848285981608F067
:103AC000BAC090858185E92FF82FE90DF11DE90D28
:103AD000F11D208131813B832A83892D809581705E
:103AE0008983812CBA0180E090E00E945F2F2B0136
:103AF0003C0120E030E040E45FE30E94ED2F0E94B3
:103B0000332FAA81BB81A617B707B0F020E030E0C1
:103B100040EA5FE3C301B2010E94ED2F20E030E0F4
:103B200040E85FE30E94CF2E0E94332FEA81FB81A1
:103B30006E177F0708F064C01601220C331CB10118
:103B400080E090E00E945F2F2B013C0120E030E0FC
:103B500040E45FE30E94ED2F0E94332F2A813B81D6
:103B600026173707A8F020E030E040EA5FE3C30102
:103B7000B2010E94ED2F20E030E040E85FE30E94B8
:103B8000CF2E0E94332FAA81BB816A177B07D0F505
:103B9000B1016C0D7D1D80E090E00E945F2F2B0134
:103BA0003C0120E030E040E45FE30E94ED2F0E9402
:103BB000332FEA81FB81E617F707A8F020E030E019
:103BC00040EA5FE3C301B2010E94ED2F20E030E044
:103BD00040E85FE30E94CF2E0E94332F2A813B8171
:103BE0006217730788F4D8011B968C91882331F1F2
:103BF000B1E09B1226C0EA81FB81EC15FD0520F5A2
:103C000091E003C092E001C093E0D5018C918F5FF9
:103C1000891710F48C931BC0F5011082D701ED9128
:103C2000FC9136970190F081E02DEE0DFF1D84850B
:103C30008F5F84870CC0B1E0B98308C0E2E0E983FC
:103C400005C0F2E0F98302C022E02983812C89813A
:103C5000982D0F900F900F90DF91CF911F910F91A2
:103C6000FF90EF90DF90CF90BF90AF909F908F909C
:103C70007F906F905F904F903F902F9008950F939B
:103C80001F93CF93DF93EC01E881F981389701907E
:103C9000F081E02DE80FF91F82858D3008F4B1C066
:103CA00081E08487E881F98136970190F081E02DE9
:103CB000EC0FFD1F14821582168217821382E88191
:103CC000F9813697808191818C0F9D1FBC016D5FBA
:103CD0007F4F49E753E00E943A1D892B09F091C0BC
:103CE000E881F98136970190F081E02DEC0FFD1FFE
:103CF000128288819981FC0138970190F081E02D32
:103D0000EC0FFD1F34852285321708F05AC0FC01E4
:103D10003697808191818C0F9D1FBC016D5F7F4F15
:103D200049E753E00E943A1D8C01E881F9813697FA
:103D3000808191818C0F9D1FBC016D5F7F4F49E792
:103D400053E00E943A1D01301105A9F4892B09F0B6
:103D500058C0E881F98136970190F081E02DEC0F91
:103D6000FD1F4481558166817781440F551F661F71
:103D7000771F416016C0012B09F043C0019709F07D
:103D800040C0E881F98136970190F081E02DEC0F79
:103D9000FD1F4481558166817781440F551F661F41
:103DA000771F4483558366837783E881F98136974B
:103DB0000190F081E02DEC0FFD1F82818F5F8283E7
:103DC00098CF8DE0878388819981FC013897019095
:103DD000F081E02DEC0FFD1FDC0116970D90BC91DA
:103DE000A02DAC0FBD1F14968D919D910D90BC918F
:103DF000A02D83839483A583B68383E0828381E0AF
:103E000001C080E0DF91CF911F910F910895EF9253
:103E1000FF920F931F93CF93DF93EC01E881F98119
:103E200038970190F081E02DE80FF91F828581110C
:103E300002C080E019C18385A085B18581110EC0C3
:103E400012968D919C9113978F3C974090F3129608
:103E50008D919C91139786309D4058F714968D91C3
:103E60009C9115978A39924020F314968D919C91DC
:103E7000159789359440E8F683E08487E881F981D5
:103E800036970190F081E02DEC0FFD1F1482158212
:103E9000168217821382E881F98136978081918199
:103EA0008C0F9D1FBC016D5F7F4F4CEB51E00E945A
:103EB0003A1D892B09F0BDCFE881F98136978081C1
:103EC00091818C0F9D1FBC016D5F7F4F4CEB51E0CA
:103ED0000E943A1D019709F0ACCFE881F98136972D
:103EE0000190F081E02DEC0FFD1F1282A881B981B5
:103EF000FD0138970190F081E02DEC0FFD1F9485B6
:103F000082851697981708F08AC08D919C918C0F26
:103F10009D1FBC016D5F7F4F4CEB51E00E943A1D2D
:103F20008C01E881F98136970190F081E02DEC0F4A
:103F3000FD1F82818330D9F0E881F9813697808135
:103F400091818C0F9D1FBC016D5F7F4F4CEB51E049
:103F50000E943A1D7C01E881F98136970190F08139
:103F6000E02DEC0FFD1F82818330C9F40CC0BF012E
:103F70006D5F7F4F4CEB51E0CF010E943A1D081757
:103F80001907D1F256CFBF016D5F7F4F4CEB51E067
:103F9000CF010E943A1DE816F90609F04ACF011533
:103FA0001105B1F4EA94EF2809F043CFE881F981D3
:103FB00036970190F081E02DEC0FFD1F4481558173
:103FC00066817781440F551F661F771F416017C0B8
:103FD0000130110509F02DCFEF2809F02ACFE88133
:103FE000F98136970190F081E02DEC0FFD1F44819F
:103FF000558166817781440F551F661F771F448363
:10400000558366837783E881F98136970190F08143
:10401000E02DEC0FFD1F82818F5F828367CF0D90B3
:10402000BC91A02DAC0FBD1F12968C918783888107
:104030009981FC0138970190F081E02DEC0FFD1F74
:10404000DC0116970D90BC91A02DAC0FBD1F1496EE
:104050008D919D910D90BC91A02D83839483A58318
:10406000B68384E0828381E0DF91CF911F910F912D
:10407000FF90EF900895CF93DF93EC01E881F981F1
:104080003A97808191818C0F9D1F0E94741B811132
:1040900042C0E881F9813C97808191818C0F9D1FFE
:1040A0000E94E81B811137C0E881F9813E97808129
:1040B00091818C0F9D1F0E943F1E81112CC0E881B1
:1040C000F9817297808191818C0F9D1F0E94071F3B
:1040D000811121C0E881F9817497808191818C0FD1
:1040E0009D1F0E94301C811116C0E881F9817897CC
:1040F000808191818C0F9D1F0E946E1C81110BC0CD
:10410000E881F9817697808191818C0F9D1FDF91E5
:10411000CF910C94AC1C81E0DF91CF91089528EEF3
:1041200035E0FC0131832083609381061092840680
:1041300024E622830895EF92FF920F931F93CF936B
:10414000DF938C01EB017A01E881F9810190F08124
:10415000E02DCB010995809151078A8740E080913D
:104160005107481720F5A42FB0E0CD01880F991F03
:10417000E885F985E80FF91FDC01A757B94F2D91A4
:104180003C912E9DC0012F9D900D3E9D900D1124C0
:10419000D80112962C9130E040FF03C03195219553
:1041A0003109280F391F318320834F5FD8CF81E039
:1041B000DF91CF911F910F91FF90EF900895809123
:1041C0008406882339F08091510780FF02C02D9A20
:1041D00008952D9808952091820630918306243009
:1041E000310531F442E350E00E949B2081E00895C4
:1041F00080E008951F920F920FB60F9211242F9313
:104200003F934F935F936F937F938F939F93AF935E
:10421000BF93EF93FF93809181060E949125409177
:1042200085065091860660918706709188064F5FDB
:104230005F4F6F4F7F4F4093850650938606609384
:1042400087067093880620915107243630F024E0C9
:1042500030E03093830620938206209182063091CD
:1042600083062230310509F124F42130310549F06B
:104270007FC023303105E1F12430310509F46EC0EF
:1042800077C0892B09F074C08091850690918606CD
:10429000A0918706B091880684369105A105B105E5
:1042A00008F45EC01092510725C0019709F060C064
:1042B000E091510781E08E0F80935107F0E08091EB
:1042C000850690918606A0918706B0918806EE0F2C
:1042D000FF1FE757F94F9183808310928506109254
:1042E0008606109287061092880683E090E031C01F
:1042F000892B01F5E091510781E08E0F80935107E2
:10430000F0E08091850690918606A0918706B09195
:104310008806EE0FFF1FE757F94F918380831092B5
:10432000850610928606109287061092880682E013
:1043300090E00FC08091850690918606A091870637
:10434000B091880685369105A105B10588F084E015
:1043500090E090938306809382060AC0892B41F4F3
:104360001092850610928606109287061092880693
:104370000E94DF20FF91EF91BF91AF919F918F91AC
:104380007F916F915F914F913F912F910F900FBE51
:104390000F901F901895DC01ED91FC9138972081CA
:1043A0003181820F931F0C94741BDC01ED91FC9101
:1043B000389720813181820F931F0C94E81BDC0118
:1043C000ED91FC91389720813181820F931F0C94DD
:1043D000301CDC01ED91FC91389720813181820FF6
:1043E000931F0C946E1CDC01ED91FC913897208199
:1043F0003181820F931F0C94AC1CDC01ED91FC9178
:10440000389720813181820F931F0C943F1EDC016D
:10441000ED91FC91389720813181820F931F0C948C
:10442000071FDC01ED91FC91389720813181820FCB
:10443000931F0C943B20DC01ED91FC913A97208175
:104440003181820F931F0C943B208F929F92AF92E9
:10445000BF92CF92DF92EF92FF920F931F93CF9371
:10446000DF93CDB7DEB78F859889A989BA894115C1
:10447000510551F4E0917A00EF77E0937A00E091F2
:104480006400E160E09364002115310529F4E091B6
:104490006500E061E09365000115110529F4E091E4
:1044A0006500E860E0936500E114F10429F4E0910F
:1044B0006400E860E0936400C114D10429F4E09141
:1044C0006400E062E0936400A114B10429F4E09177
:1044D0006400E460E09364008114910429F4E091A5
:1044E0006500E160E0936500009729F4E0916400C5
:1044F000E068E0936400109729F4E0916500E068BB
:10450000E09365006A307105B1F063FF02C0E8E234
:1045100001C0E8E067706E2BE8E1F0E00FB6F894B8
:10452000A895E09360000FBE60936000609160000A
:1045300060646093600063B7617F63BFF89463B7A2
:10454000616063BF7894889563B76E7F63BF78942A
:10455000452B51F4409164004E7F4093640040919C
:104560007A00406840937A00232B29F4209165005B
:104570002F7E20936500012B29F420916500277F71
:1045800020936500EF2829F420916400277F209371
:104590006400CD2829F4209164002F7D20936400CD
:1045A000AB2829F4209164002B7F20936400892894
:1045B00029F4209165002E7F20936500892B29F432
:1045C000809164008F7780936400AB2B29F48091F5
:1045D00065008F7780936500DF91CF911F910F91D8
:1045E000FF90EF90DF90CF90BF90AF909F908F9013
:1045F00008951F920F920FB60F9211248F9388E1A6
:104600000FB6F89480936000109260000FBE8F91F7
:104610000F900FBE0F901F9018951F920F920FB61C
:104620000F9211242F933F934F935F936F937F9338
:104630008F939F93AF93BF93EF93FF938091530713
:1046400090915407892B29F0E0915307F09154077A
:104650000995FF91EF91BF91AF919F918F917F91BC
:104660006F915F914F913F912F910F900FBE0F90DF
:104670001F9018951F920F920FB60F9211242F932F
:104680003F934F935F936F937F938F939F93AF93DA
:10469000BF93EF93FF938091550790915607892B15
:1046A00029F0E0915507F09156070995FF91EF9198
:1046B000BF91AF919F918F917F916F915F914F913A
:1046C0003F912F910F900FBE0F901F9018951F9242
:1046D0000F920FB60F9211242F933F934F935F9336
:1046E0006F937F938F939F93AF93BF93EF93FF93BA
:1046F0008091570790915807892B29F0E09157072F
:10470000F09158070995FF91EF91BF91AF919F915B
:104710008F917F916F915F914F913F912F910F906A
:104720000FBE0F901F9018951F920F920FB60F9209
:1047300011242F933F934F935F936F937F938F93A6
:104740009F93AF93BF93EF93FF93809159079091FD
:104750005A07892B29F0E0915907F0915A070995DA
:10476000FF91EF91BF91AF919F918F917F916F9149
:104770005F914F913F912F910F900FBE0F901F901F
:1047800018951F920F920FB60F9211242F933F93FB
:104790004F935F936F937F938F939F93AF93BF9349
:1047A000EF93FF9380915B0790915C07892B29F031
:1047B000E0915B07F0915C070995FF91EF91BF9144
:1047C000AF919F918F917F916F915F914F913F91A9
:1047D0002F910F900FBE0F901F9018951F920F9260
:1047E0000FB60F9211242F933F938F939F93AF9304
:1047F000BF9380915E0790915F07A0916007B09191
:10480000610730915D0723E0230F2D3720F40196D7
:10481000A11DB11D05C026E8230F0296A11DB11DE3
:1048200020935D0780935E0790935F07A0936007D6
:10483000B09361078091620790916307A09164072C
:10484000B09165070196A11DB11D809362079093F9
:104850006307A0936407B0936507BF91AF919F91E1
:104860008F913F912F910F900FBE0F901F90189531
:104870002FB7F89460915E0770915F078091600791
:10488000909161072FBF08953FB7F8948091620718
:1048900090916307A0916407B091650726B5A89B26
:1048A00005C02F3F19F00196A11DB11D3FBF66271E
:1048B000782F892F9A2F620F711D811D911D42E063
:1048C000660F771F881F991F4A95D1F70895CF92D9
:1048D000DF92EF92FF92CF93DF936B017C010E94F6
:1048E0004424EB01C114D104E104F10489F00E94D5
:1048F0008A2D0E9444246C1B7D0B683E734090F30C
:1049000081E0C81AD108E108F108C851DC4FEACFAC
:10491000DF91CF91FF90EF90DF90CF900895789442
:1049200084B5826084BD84B5816084BD85B58260B4
:1049300085BD85B5816085BDEEE6F0E08081816052
:104940008083E1E8F0E01082808182608083808152
:1049500081608083E0E8F0E0808181608083E1E92C
:10496000F0E0808182608083808181608083E0E9E3
:10497000F0E0808181608083E1ECF0E08081846000
:104980008083808182608083808181608083E3EC8A
:10499000F0E0808181608083E0ECF0E080818260E3
:1049A0008083E2ECF0E0808181608083EAE7F0E0E0
:1049B0008081846080838081826080838081816047
:1049C0008083808180688083089590E0FC01319726
:1049D000EF30F105B0F5EA5AFF4F0C94C9308091E1
:1049E00080008F7703C0809180008F7D809380004E
:1049F000089580918000877FF9CF84B58F7702C0BA
:104A000084B58F7D84BD0895809190008F7707C015
:104A1000809190008F7D03C080919000877F80936C
:104A2000900008958091C0008F7703C08091C000EE
:104A30008F7D8093C00008958091C200877F80930E
:104A4000C2000895CF93DF9390E0FC01EC55F64F40
:104A50002491FC01EE53F64F8491882349F190E0B4
:104A6000880F991FFC01E450F64FA591B491825133
:104A7000964FFC01C591D4919FB7611108C0F8947D
:104A80008C91209582238C93888182230AC0623086
:104A900051F4F8948C91322F309583238C93888134
:104AA000822B888304C0F8948C91822B8C939FBFB7
:104AB000DF91CF9108950F931F93CF93DF931F92B0
:104AC000CDB7DEB7282F30E0F901EA57F64F8491D1
:104AD000F901EC55F64F1491F901EE53F64F04919C
:104AE0000023C9F0882321F069830E94E5246981AD
:104AF000E02FF0E0EE0FFF1FE251F64FA591B491C9
:104B00009FB7F8948C91611103C01095812301C067
:104B1000812B8C939FBF0F90DF91CF911F910F91AD
:104B20000895CF93DF93282F30E0F901EA57F64F2D
:104B30008491F901EC55F64FD491F901EE53F64FFB
:104B4000C491CC2391F081110E94E524EC2FF0E078
:104B5000EE0FFF1FE052F64FA591B4912C912D233B
:104B600081E090E021F480E002C080E090E0DF91FD
:104B7000CF910895CF93DF931F92CDB7DEB76983AE
:104B8000DC01ED91FC910280F381E02D41E050E0E9
:104B9000BE016F5F7F4F09950F90DF91CF91089510
:104BA000CF93DF93EC018C859D8597FF05C082E054
:104BB0000E946F2A9D878C878C859D85DF91CF9180
:104BC000089583E00C94C42CFC018485958597FDA1
:104BD00006C082E00E94172A90E00196089582E0C4
:104BE0000E94172A90E00895FC018485958597FD21
:104BF00005C02FEF3FEF35872487089582E00C949E
:104C00006F2ACF93DF93EC0180911801882331F054
:104C100083E00E94A02A1816190634F081E090E083
:104C20009B838A8380E090E0DF91CF910895FC011F
:104C300020812E5F208342E450E06AE07AE080E841
:104C40000C943B2BFC0181819081913A59F4813283
:104C500009F03CC047E050E061E171E080E00E9473
:104C60003B2B43C0913291F5803239F467E070E01C
:104C700081E191E00E946C2B06C0823209F035C0C0
:104C80008281809318018091110190911201A0916D
:104C90001301B0911401803B9440A105B105C1F40A
:104CA0008091180180FD14C087E797E79093010871
:104CB000809300082BE088E190E00FB6F894A89567
:104CC000809360000FBE209360000FC080E00895C5
:104CD00088E10FB6F89480936000109260000FBED8
:104CE000A895109201081092000881E008952FEF16
:104CF0003FEFFC01358724870895CF93C0911801B9
:104D00006AE070E080E090E00E94672481E0C111D9
:104D100001C080E0CF910895109269071092680752
:104D200088EE93E0A0E0B0E080936A0790936B0771
:104D3000A0936C07B0936D0784EF95E0909367079D
:104D4000809366078FEF9FEF9093730780937207AE
:104D5000089508950E948F240E94A92686EB97E06B
:104D60000E94242D0E94800AC0E0D0E00E943912E7
:104D70002097E1F30E940000F9CFCF92DF92EF92EB
:104D8000FF920F931F93CF93DF936C017A01EB0196
:104D9000E60EF71E00E010E0CE15DF0561F0699128
:104DA000D601ED91FC910190F081E02DC6010995AD
:104DB000080F191FF1CFC801DF91CF911F910F91FB
:104DC000FF90EF90DF90CF900895EF92FF920F93B6
:104DD0001F93CF93DF938C01FB01C0E0D0E064917F
:104DE0007F018FEFE81AF80A662361F0D801ED9190
:104DF000FC910190F081E02DC8010995C80FD91FE1
:104E0000F701EDCFCE01DF91CF911F910F91FF9070
:104E1000EF9008950C94FA05DC01ED91FC9101905E
:104E2000F081E02D09940F931F93CF93DF93EC0152
:104E30006DE00E940C278C016AE0CE010E940C27D5
:104E4000800F911FDF91CF911F910F9108950F93C4
:104E50001F93CF93DF93EC010E94E5268C01CE01D6
:104E60000E941327800F911FDF91CF911F910F9107
:104E700008950F931F93CF93DF93EC010E94FA05DF
:104E80008C01CE010E941327800F911FDF91CF91DB
:104E90001F910F9108950F931F93CF93DF93EC0110
:104EA0000E940C278C01CE010E941327800F911FB6
:104EB000DF91CF911F910F9108958F929F92AF92A2
:104EC000BF92CF92DF92EF92FF920F931F93CF93F7
:104ED000DF93CDB7DEB7A1970FB6F894DEBF0FBE54
:104EE000CDBF7C01C42EE52FCB01D22E19A221E02B
:104EF0002D1510F02AE0D22E8E010F5D1F4F8D2C44
:104F0000912CA12CB12C6C2D7E2FA50194010E9417
:104F100088308C2DD29E80191124015011098A30BD
:104F200014F4805D01C0895CF8018083211531058E
:104F30004105510521F0C22EE32FCA01E4CFB8018B
:104F4000C7010E94FA05A1960FB6F894DEBF0FBE06
:104F5000CDBFDF91CF911F910F91FF90EF90DF9028
:104F6000CF90BF90AF909F908F900895CF92DF9297
:104F7000EF92FF920F931F93CF93DF93EC016A019F
:104F80007B012115310579F4E881F9810190F081E7
:104F9000E02D642FDF91CF911F910F91FF90EF9043
:104FA000DF90CF9009942A303105E9F477FF1AC0D9
:104FB0006DE20E940C278C0144275527BA014C1939
:104FC0005D096E097F092AE0CE010E945D27800FEE
:104FD000911FDF91CF911F910F91FF90EF90DF9084
:104FE000CF9008952AE0B701A601CE01DF91CF91BD
:104FF0001F910F91FF90EF90DF90CF900C945D2761
:105000009A01AB01662757FD6095762F0C94B62761
:105010000F931F93CF93DF93EC019A01AB016627A7
:1050200057FD6095762F0E94B6278C01CE010E9415
:105030001327800F911FDF91CF911F910F9108953A
:105040002115310541F4DC01ED91FC910190F081D5
:10505000E02D642F09940C945D279A01462F50E0AF
:1050600060E070E00C9420280F931F93CF93DF93A0
:10507000EC019A01462F50E060E070E00E94202889
:105080008C01CE010E941327800F911FDF91CF91D9
:105090001F910F9108959A01AB0160E070E00C94AC
:1050A00020280F931F93CF93DF93EC019A01AB015C
:1050B00060E070E00E9420288C01CE010E9413273E
:1050C000800F911FDF91CF911F910F9108950F9342
:1050D0001F93CF93DF93EC010E9420288C01CE0117
:1050E0000E941327800F911FDF91CF911F910F9185
:1050F00008950F931F93CF93DF93EC010E94382400
:10510000688779878A879B87E881F9810680F7819C
:10511000E02DCE01099597FF15C00E94382408851F
:1051200019852A853B85601B710B820B930B0C81C3
:105130001D812E813F81601771078207930720F33D
:105140008FEF9FEFDF91CF911F910F9108950F93F4
:105150001F93CF93DF93EC010E94382468877987EF
:105160008A879B87E881F9810084F185E02DCE0153
:10517000099597FF15C00E943824088519852A854E
:105180003B85601B710B820B930B0C811D812E8163
:105190003F81601771078207930720F38FEF9FEF1E
:1051A000DF91CF911F910F910895CF93DF93EC0181
:1051B000CE010E94A72897FD11C08D32910571F094
:1051C0009C01205331092A30310540F0E881F981F2
:1051D0000680F781E02DCE010995EACFDF91CF91CE
:1051E0000895FC0144835583668377830895CF92A5
:1051F000DF92FF920F931F93CF93DF9300D000D0E5
:10520000CDB7DEB76C01062F0E94D528FC0197FDB3
:105210004BC020E030E0A901F12C112707FD1095CB
:10522000E017F107E9F0ED32F105C1F0CF01C097C9
:105230000A97B0F4AAE0B0E00E94D6309B01AC011E
:10524000CF01AA2797FDA095BA2F280F391F4A1F13
:105250005B1F205331094109510902C0FF24F39417
:10526000D601ED91FC910680F781E02DC6012983DE
:105270003A834B835C830995C6010E94A728FC01F1
:10528000C09729813A814B815C810A9748F2E017E7
:10529000F10731F2FF2061F066277727CB01621B0F
:1052A000730B840B950B06C060E070E0CB0102C06D
:1052B000CA01B9010F900F900F900F90DF91CF911D
:1052C0001F910F91FF90DF90CF90089561E00C94B3
:1052D000F728AF92BF92CF92DF92EF92FF920F9397
:1052E0001F93CF93DF936C01790121153105B9F03C
:1052F0008A01C0E0D0E0A62EBB24A7FCB094C60172
:105300000E94792897FD0EC08A159B0559F0F80177
:1053100081938F012196CE15DF0589F703C080E0C8
:1053200090E001C0CE01DF91CF911F910F91FF90CE
:10533000EF90DF90CF90BF90AF9008954091BA0763
:105340005091BB072091B8073091B9074217530716
:10535000B4F49091E8009570E1F39091E80092FD2B
:1053600019C08093F1008091BA079091BB07019614
:105370008F739927892B19F48EEF8093E800809121
:10538000BA079091BB0701969093BB078093BA0729
:1053900081E0089580E00895CF92DF92FF920F930D
:1053A0001F93CF93DF931F92CDB7DEB7082F162F31
:1053B000862F880F8E5F99830E949E2983E00E942A
:1053C0009E29F02EC02E9981D92E8C2D8F198117F0
:1053D00078F4F60184910E949E29082F80E00E94B3
:1053E0009E298023FFEFCF1ADF0A8111EECF01C083
:1053F00081E00F90DF91CF911F910F91FF90DF908F
:10540000CF900895615030F02091F100FC0120838D
:105410000196F8CF289884E68093BD0708952FB7AA
:10542000FC012083F89467706093E9000895CF939E
:10543000DF931F92CDB7DEB7682FCE0101960E9491
:105440000F2A8091F20099819FBF0F90DF91CF9139
:105450000895FF920F931F93CF93DF9300D0CDB7A2
:10546000DEB7F62E8A019091BC07992311F057FF01
:1054700003C08FEF9FEF2BC0682FCE0101967A8378
:105480000E940F2A8091F20090E0A8017A81801793
:1054900091070CF4AC01EF2DF72FF40E84E6FE1605
:1054A00039F028988093BD079091F1009193F7CF40
:1054B0004115510521F08091F200882321F0898166
:1054C0008FBFCA0104C08BE68093E800F8CF0F902D
:1054D0000F90DF91CF911F910F91FF900895CF937F
:1054E000DF931F92CDB7DEB741E050E0BE016F5FA2
:1054F0007F4F0E94292A019719F4898190E002C008
:105500008FEF9FEF0F90DF91CF910895CF93DF93AF
:105510001F92CDB7DEB7682FCE0101960E940F2AE9
:105520009091E800892F807295FF04C09091F2005D
:1055300080E4891B99819FBF0F90DF91CF910895DF
:105540006F927F928F929F92AF92BF92CF92DF9293
:10555000EF92FF920F931F93CF93DF931F92CDB7DC
:10556000DEB7782E7B01C42EB52E8091BC07882330
:1055700069F0042F152F8AEFD82E872D8072982E70
:105580009AE3A92E872D8074882E11C08FEF9FEF8C
:1055900057C0872D0E94862A682E81110CC0DA948C
:1055A000A9F361E070E080E090E00E9467240115BB
:1055B000110579F73BC0282F30E0021713070CF4D0
:1055C000602E672DCE0101960E940F2A8091E8007F
:1055D00085FF29C0262D30E0021B130B992039F0DE
:1055E0006A948FEF6816B1F01092F100F9CFF701CD
:1055F000862D77FE07C0815058F094919093F1006A
:105600003196F9CF815020F091919093F100FACF2B
:10561000E20EF31E8091E80085FF0FC00115110511
:1056200011F481100AC089818FBFC1CF5D9884E6D3
:105630008093BE078C2D9B2D03C0A092E800F3CF72
:105640000F90DF91CF911F910F91FF90EF90DF901E
:10565000CF90BF90AF909F908F907F906F90089564
:105660001092E9001092BB071092BA079093B90705
:105670008093B8070895CF92DF92FF920F931F9304
:10568000CF93DF9300D0CDB7DEB7F82E8A016B0140
:1056900001151105B1F0F601F7FE02C0849101C0B9
:1056A000808149835A830E949E2901501109FFEF8E
:1056B000CF1ADF0A49815A818111EACF8FEF9FEF1C
:1056C00001C0CA010F900F90DF91CF911F910F91F0
:1056D000FF90DF90CF9008951F93CF93DF931F9299
:1056E000CDB7DEB7162F2091E80022FFFCCF612F47
:1056F00079830E94022A8BEF8093E800812F7981C1
:10570000972F0F90DF91CF911F910895CF93DF9343
:105710001F92CDB7DEB71982CE0101960E941726DF
:10572000CE0101960E94A92D898190E00F90DF9112
:10573000CF9108951F920F920FB60F921124EF92FE
:10574000FF920F931F932F933F934F935F936F930A
:105750007F938F939F93AF93BF93EF93FF93CF93D9
:10576000DF93CDB7DEB76297DEBFCDBF1092E90001
:105770008091E80083FFEBC068E0CE010A960E94AA
:10578000022A82EF8093E8009A8597FF05C08091F6
:10579000E80080FFFCCF03C08EEF8093E800892FE4
:1057A000807609F0B9C08B85811105C01092F10097
:1057B0001092F100C5C0282F2D7F213009F4C0C000
:1057C000853049F48091E80080FFFCCF8C858068AB
:1057D0008093E300B5C0863009F076C02D85E88857
:1057E000F988223071F580E090E02A8B0E94302BFE
:1057F0000E94862B99E08E010F5F1F4FF801392F11
:1058000011923A95E9F799832A892A8391E09E8338
:1058100090E898879AEF99872091BA073091BB0753
:10582000275F3F4F3C832B838D83C7010E94302B22
:1058300049E050E0B80180E00E943B2B0E94862B9B
:105840007FC0C7012A8B0E94302B2A89223241F463
:1058500082E290E00E94B42D892B09F071C074C0DF
:10586000213069F488899989089711F42093B70742
:105870008091B707811118C063E67AE01AC023301F
:1058800009F062C08C85882391F0823021F460E1B8
:1058900081E89AE006C0813009F056C06BE085E7E8
:1058A0009AE00E94CC294AC061E57AE002C062E930
:1058B0007AE06115710509F447C0FB01449150E09D
:1058C00080E80E943B2B3CC0873009F43DC0883003
:1058D00021F481E08093F10033C0893089F5937021
:1058E00099F5EDE4FAE081E021E096E38093E900A8
:1058F0002093EB0034913093EC009093ED008F5F98
:105900003196853099F78EE78093EA001092EA008D
:105910008C858093BC0714C0888999890E94302B9C
:105920008E85811105C0CE010A960E94222606C0EE
:10593000823051F4CE010A960E94DC2D882321F09A
:105940008EEF8093E80003C081E28093EB006296C3
:105950000FB6F894DEBF0FBECDBFDF91CF91FF91A0
:10596000EF91BF91AF919F918F917F916F915F91D7
:105970004F913F912F911F910F91FF90EF900F90BA
:105980000FBE0F901F9018958093E9008091F20050
:10599000882319F08AE38093E80008951F920F92FC
:1059A0000FB60F9211242F933F934F935F936F93F2
:1059B0007F938F939F93AF93BF93EF93FF938091C8
:1059C000E1001092E10083FF0FC01092E90091E026
:1059D0009093EB001092EC0092E39093ED00109204
:1059E000BC0798E09093F00082FF1DC083E00E9406
:1059F000C42C8091BE07882339F08091BE07815066
:105A00008093BE07882369F08091BD07882359F0F1
:105A10008091BD0781508093BD07811104C0289AF1
:105A200002C05D9AF1CFFF91EF91BF91AF919F912D
:105A30008F917F916F915F914F913F912F910F9037
:105A40000FBE0F901F9018951092BC0781E08093B5
:105A5000D70080EA8093D80082E189BD09B400FEB6
:105A6000FDCF61E070E080E090E00E94672480E973
:105A70008093D8008CE08093E2001092E000559A69
:105A8000209A0895009729F0BC0180E090E00C94E2
:105A900044310895CF93DF9300D000D0CDB7DEB767
:105AA0009B01AC01611571058105910569F0698360
:105AB0003A834B835C830E943F3129813A814B8139
:105AC0005C810E94AA3003C060E070E0CB010F90BF
:105AD0000F900F900F90DF91CF910895CF92DF92AA
